00BDIN9999BOVESPA 999920160314201603141739                                                                                                                                                                                                                                                                                                                    
0101IBOVESPA                      0496390487560501650495130495270496382016031103749720160126048867-00155+00014-00155-00077+01419+02276+01273+0005601504500106189992000000049496090000000648435945200049443                                                                                                                                                    
0102IEELETRICA                    0275120267700277150271660270700275402016031102087320160120026942-00217+00155-00217+00321+00944+01327+00862+0045700201300001509020400000002548250000000042909470200027137                                                                                                                                                    
0103IVBX2                         0076710075640077420076490076480077092016031000634320160126007596-00099-00048-00099+00007+00555+01381+00626+0049001303600105047319600000022115250000000261172997300007648                                                                                                                                                    
0104IBRX BRASIL                   0205100201570207160204500204500205102016031101575720160126020206-00148+00006-00148-00077+01289+02076+01143+0002202507200310099999900000053632050000000691617523500020423                                                                                                                                                    
0106IBRX 50                       0083800082370084670083590083620083802016031100638620160126008254-00151+00008-00151-00094+01354+02180+01219-0004301103800105082341400000047165220000000620888286100008348                                                                                                                                                    
0108IGOVERNANCA                   0078430077370079190078370078360078432016031100619420160126007757-00110+00004-00110+00062+01079+01843+01059+0010004912500618090459400000042397330000000579754069600007828                                                                                                                                                    
0109ISUSTENTABIL                  0022110021930022340022110022120022242016031000187220160126002198-00058-00056-00058-00051+00619+01241+00382-0073701202700104043764900000017643850000000315526164200002209                                                                                                                                                    
0110ITAG ALONG                    0113460112140114640113680113700113462016031100884320160126011242-00092+00018-00092+00172+01254+02051+01338+0042804911000717276519200000032229980000000503735403100011352                                                                                                                                                    
0111INDUSTRIAL                    0121210120460122560121350121430125042016022201102120160126012097-00019-00131-00019-00216-00060+00432-00392-0035501203400104731247000000015595760000000136802626400012131                                                                                                                                                    
0112SMALL CAP                     0009050008860009120008990008980009072016031000072220160126000890-00164-00026-00164+00057+01009+01659+00548-0092501504800206525315900000012913040000000077695056200000898                                                                                                                                                    
0113MIDLARGE CAP                  0009540009380009630009510009510009542016031100073120160126000940-00146+00013-00146-00080+01312+02114+01199+0009401304100105580778100000041675260000000621152796900000950                                                                                                                                                    
0114ICONSUMO                      0026670026250026870026510026500027092016031000220720160126002635-00111-00165-00111-00115+00583+01101+00562+0005301301900103319906300000006509480000000119700302400002650                                                                                                                                                    
0115IMOBILIARIO                   0005580005440005620005560005540005612016031000041720160126000549-00176-00029-00176+00044+00996+02119+02647+0042100001300101406360600000002033930000000024025002700000555                                                                                                                                                    
0116IFINANCEIRO                   0055200054420056120055570055570055192016031100391120160121005453-00120+00109-00120+00466+02482+03455+02609+0119600201300001527139900000013533460000000269809387300005545                                                                                                                                                    
0117ICO2                          0012710012550012850012740012740012712016031100097420160121001258-00099+00013-00099-00004+01351+02147+01471+0014400702300103153730400000024694850000000428460779700001272                                                                                                                                                    
0118IGC TRADE                     0020880020610021110020910020920020882016031100161020160126002066-00106+00030-00106+00019+01280+02100+01236-0008102708100311189196400000041724240000000575246604800002088                                                                                                                                                    
0119UTILITIES                     0028240027430028450027860027750028262016031100215020160120002765-00216+00128-00216+00221+00741+01244+01292+0075100301400001710241600000002963460000000050065955000002783                                                                                                                                                    
0120I DIVIDENDOS                  0023430022790023660023280023260023692016030700169820160121002294-00212+00131-00212-00319+01575+02490+01327-0102900502500103126454400000011908910000000163419092200002325                                                                                                                                                    
0121IMAT BASICOS                  0012040011940012350012180012250013392016030700104620160202001215+00086-00125+00086-00928+00068+01259-01011-0162400400700001119996500000013943180000000104016700200001219                                                                                                                                                    
0122IBRASIL                       0018980018660019170018930018930018982016031100146020160126001871-00147+00011-00147-00067+01283+02072+01139+0000202808800311999999900000054579150000000698831042200001890                                                                                                                                                    
0123BDRX                          0038680038680039480039090039170043482016010500385520160310003933+00167+00035+00167-00281-00543-00155-01040+0136305301100008500010800000000012060000000001899114400003868                                                                                                                                                    
0124IND FDO IMOB                  0014130014130014260014230014250014232016031400130520160128001423+00071+00045+00071+00212+00459+00652+00103+0060904101400906900616600000000030157800000001891774329001421                                                                                                                                                    
0125IGC - NM                      0018080017800018230018010017990018182016031000147920160126001786-00120-00052-00120+00126+00775+01491+00798+0045903308200411949763300000017676580000000311975622300001800                                                                                                                                                    
0202LOTE PADRAO                   3M          DRN        MMMC34      010VISTA          0000000001477000000014770000000147700000001477000000014770+001700000001459600000014841000010000000000006000000000000886200000000000000000000000MOEDA CORRENTE 00000010000000000000BRMMMCBDR0001160               0000000170                                            
0202LOTE PADRAO                   ABBOTT      DRN        ABTT34      010VISTA          0000000000365200000003657000000036520000000365400000003657+003240000000364500000003723000020000000000034000000000001242430000000000000000000000MOEDA CORRENTE 00000010000000000000BRABTTBDR0071170               0000000324                                            
0202LOTE PADRAO                   ABC BRASIL  PN      N2 ABCB4       010VISTA          0000000000111700000001125000000010780000000110200000001099+000450000000109800000001115020570000000003330000000000036688680000000000000000000000MOEDA CORRENTE 00000010000000000000BRABCBACNPR41250               0000000045                                            
0202LOTE PADRAO                   ACO ALTONA  PN         EALT4       010VISTA          0000000000000000000000000000000000000000000000000000000000/000000000000075400000001180000000000000000000000000000000000000000000000000000000000MOEDA CORRENTE 00000010000000000000BREALTACNPR11280               0000000000                                            
0202LOTE PADRAO                   AES ELPA    ON         AELP3       010VISTA          0000000000000000000000000000000000000000000000000000000000/000000000000057200000001005000000000000000000000000000000000000000000000000000000000MOEDA CORRENTE 00000010000000000000BRAELPACNOR21220               0000000000                                            
0202LOTE PADRAO                   AES TIETE E ON      N2 TIET3       010VISTA          0000000000000000000000000000000000000000000000000000000000/000000000000029100000000329000000000000000000000000000000000000000000000000000000000MOEDA CORRENTE 00000010000000000000BRTIETACNOR01000               0000000000                                            
0202LOTE PADRAO                   AES TIETE E PN      N2 TIET4       010VISTA          0000000000000000000000000000000000000000000000000000000000/000000000000028100000000299000000000000000000000000000000000000000000000000000000000MOEDA CORRENTE 00000010000000000000BRTIETACNPR71000               0000000000                                            
0202LOTE PADRAO                   AES TIETE E UNT     N2 TIET11      010VISTA          0000000000149300000001501000000014440000000146400000001481+000200000000148000000001484036010000000009075000000000132824750000000000000000000000MOEDA CORRENTE 00000010000000000000BRTIETCDAM151000               0000000020                                            
0202LOTE PADRAO                   AFLUENTE    ON         AFLU3       010VISTA          0000000000025000000000250000000002500000000025000000000250=000000000000020200000000250000010000000000001000000000000002500000000000000000000000MOEDA CORRENTE 00000010000000000000BRAFLUACNOR91190               0000000000                                            
0202LOTE PADRAO                   AFLUENTE    PNA        AFLU5       010VISTA          0000000000000000000000000000000000000000000000000000000000/000000000000025000000000000000000000000000000000000000000000000000000000000000000000MOEDA CORRENTE 00000010000000000000BRAFLUACNPA21190               0000000000                                            
0202LOTE PADRAO                   AFLUENTE T  ON         AFLT3       010VISTA          0000000000000000000000000000000000000000000000000000000000/000000000000022000000000300000000000000000000000000000000000000000000000000000000000MOEDA CORRENTE 00000010000000000000BRAFLTACNOR11070               0000000000                                            
0202LOTE PADRAO                   AGCONCESSOESON      MB ANDG3B      010VISTA          0000000000000000000000000000000000000000000000000000000000/000000000000000100000000000000000000000000000000000000000000000000000000000000000000MOEDA CORRENTE 00000010000000000000BRANDGACNOR91310               0000000000                                            
0202LOTE PADRAO                   ALFA CONSORCON         BRGE3       010VISTA          0000000000000000000000000000000000000000000000000000000000/000000000000018500000000260000000000000000000000000000000000000000000000000000000000MOEDA CORRENTE 00000010000000000000BRBRGEACNOR61990               0000000000                                            
0202LOTE PADRAO                   ALFA CONSORCPNB        BRGE6       010VISTA          0000000000000000000000000000000000000000000000000000000000/000000000000040000000000000000000000000000000000000000000000000000000000000000000000MOEDA CORRENTE 00000010000000000000BRBRGEACNPB72030               0000000000                                            
0202LOTE PADRAO                   ALFA CONSORCPND        BRGE8       010VISTA          0000000000000000000000000000000000000000000000000000000000/000000000000031500000000400000000000000000000000000000000000000000000000000000000000MOEDA CORRENTE 00000010000000000000BRBRGEACNPD32050               0000000000                                            
0202LOTE PADRAO                   ALFA CONSORCPNE        BRGE11      010VISTA          0000000000000000000000000000000000000000000000000000000000/000000000000036000000000000000000000000000000000000000000000000000000000000000000000MOEDA CORRENTE 00000010000000000000BRBRGEACNPE10960               0000000000                                            
0202LOTE PADRAO                   ALFA CONSORCPNF        BRGE12      010VISTA          0000000000000000000000000000000000000000000000000000000000/000000000000010100000000250000000000000000000000000000000000000000000000000000000000MOEDA CORRENTE 00000010000000000000BRBRGEACNPF80930               0000000000                                            
0202LOTE PADRAO                   ALFA FINANC ON         CRIV3       010VISTA          0000000000000000000000000000000000000000000000000000000000/000000000000020100000000259000000000000000000000000000000000000000000000000000000000MOEDA CORRENTE 00000010000000000000BRCRIVACNOR41900               0000000000                                            
0202LOTE PADRAO                   ALFA FINANC PN         CRIV4       010VISTA          0000000000000000000000000000000000000000000000000000000000/000000000000031500000000329000000000000000000000000000000000000000000000000000000000MOEDA CORRENTE 00000010000000000000BRCRIVACNPR11950               0000000000                                            
0202LOTE PADRAO                   ALFA HOLDINGON         RPAD3       010VISTA          0000000000000000000000000000000000000000000000000000000000/000000000000010000000000250000000000000000000000000000000000000000000000000000000000MOEDA CORRENTE 00000010000000000000BRRPADACNOR11950               0000000000                                            
0202LOTE PADRAO                   ALFA HOLDINGPNA        RPAD5       010VISTA          0000000000000000000000000000000000000000000000000000000000/000000000000044000000000470000000000000000000000000000000000000000000000000000000000MOEDA CORRENTE 00000010000000000000BRRPADACNPA42020               0000000000                                            
0202LOTE PADRAO                   ALFA HOLDINGPNB        RPAD6       010VISTA          0000000000000000000000000000000000000000000000000000000000/000000000000000000000000185000000000000000000000000000000000000000000000000000000000MOEDA CORRENTE 00000010000000000000BRRPADACNPB21950               0000000000                                            
0202LOTE PADRAO                   ALFA INVEST ON         BRIV3       010VISTA          0000000000000000000000000000000000000000000000000000000000/000000000000045100000000549000000000000000000000000000000000000000000000000000000000MOEDA CORRENTE 00000010000000000000BRBRIVACNOR62020               0000000000                                            
0202LOTE PADRAO                   ALFA INVEST PN         BRIV4       010VISTA          0000000000000000000000000000000000000000000000000000000000/000000000000069100000000718000000000000000000000000000000000000000000000000000000000MOEDA CORRENTE 00000010000000000000BRBRIVACNPR32020               0000000000                                            
0202LOTE PADRAO                   ALIANSCE    ON      NM ALSC3       010VISTA          0000000000131800000001327000000012700000000130400000001300-002250000000128300000001300017210000000002921000000000038080220000000000000000000000MOEDA CORRENTE 00000010000000000000BRALSCACNOR01080               0000000225                                            
0202LOTE PADRAO                   ALIPERTI    ON         APTI3       010VISTA          0000000000000000000000000000000000000000000000000000000000/000000000003250000000000000000000000000000000000000000000000000000000000000000000000MOEDA CORRENTE 00000010000000000000BRAPTIACNOR61270               0000000000                                            
0202LOTE PADRAO                   ALIPERTI    PN         APTI4       010VISTA          0000000000000000000000000000000000000000000000000000000000/000000000002000000000000000000000000000000000000000000000000000000000000000000000000MOEDA CORRENTE 00000010000000000000BRAPTIACNPR31270               0000000000                                            
0202LOTE PADRAO                   ALPARGATAS  ON  EJ  N1 ALPA3       010VISTA          0000000000100700000001007000000010040000000100600000001004-001660000000097100000001005000020000000000002000000000000020110000000000000000000000MOEDA CORRENTE 00000010000000000000BRALPAACNOR02160               0000000166                                            
0202LOTE PADRAO                   ALPARGATAS  PN  EJ  N1 ALPA4       010VISTA          0000000000081100000000811000000007660000000078100000000779-003100000000077100000000779019950000000004519000000000035301830000000000000000000000MOEDA CORRENTE 00000010000000000000BRALPAACNPR72160               0000000310                                            
0202LOTE PADRAO                   ALTUS S/A   ON      M2 ALTS3       010VISTA          0000000000000000000000000000000000000000000000000000000000/000000000000000100000000000000000000000000000000000000000000000000000000000000000000MOEDA CORRENTE 00000010000000000000BRALTSACNOR41040               0000000000                                            
0202LOTE PADRAO                   ALUPAR      ON      N2 ALUP3       010VISTA          0000000000000000000000000000000000000000000000000000000000/000000000000000100000000000000000000000000000000000000000000000000000000000000000000MOEDA CORRENTE 00000010000000000000BRALUPACNOR81030               0000000000                                            
0202LOTE PADRAO                   ALUPAR      UNT     N2 ALUP11      010VISTA          0000000000138100000001392000000013470000000137300000001354-001160000000135400000001370010640000000001617000000000022203450000000000000000000000MOEDA CORRENTE 00000010000000000000BRALUPCDAM151030               0000000116                                            
0202LOTE PADRAO                   AMAZON      DRN        AMZO34      010VISTA          0000000010377200000104135000001037720000010404400000104135+001690000010390000000105012000020000000000004000000000004161770000000000000000000000MOEDA CORRENTE 00000010000000000000BRAMZOBDR0021010               0000000169                                            
0202LOTE PADRAO                   AMAZONIA    ON         BAZA3       010VISTA          0000000000002600000000026000000000250000000002600000000025-003840000000002500000000026000090000000000520000000000000135000000000000000000000000MOEDA CORRENTE 00000010000000000000BRBAZAACNOR01670               0000000384                                            
0202LOTE PADRAO                   AMBEV S/A   ON        .ABEV3       010VISTA          0000000000182500000001834000000017920000000180900000001804-000980000000180100000001804279730000000109507000000001980491290000000000000000000000MOEDA CORRENTE 00000010000000000000BRABEVACNOR11120               0000000098                                            
0202LOTE PADRAO                   AMERICAN EXPDRN        AXPB34      010VISTA          0000000002158100000021581000000215810000002158100000021581+000330000000000000000000000000010000000000003000000000000647430000000000000000000000MOEDA CORRENTE 00000010000000000000BRAXPBBDR0071150               0000000033                                            
0202LOTE PADRAO                   AMGEN       DRN        AMGN34      010VISTA          0000000000000000000000000000000000000000000000000000000000/000000000005214300000052961000000000000000000000000000000000000000000000000000000000MOEDA CORRENTE 00000010000000000000BRAMGNBDR0041170               0000000000                                            
0202LOTE PADRAO                   AMPLA ENERG ON         CBEE3       010VISTA          0000000000000000000000000000000000000000000000000000000000/000000000000200000000004890000000000000000000000000000000000000000000000000000000000MOEDA CORRENTE 00000010000000000000BRCBEEACNOR31520               0000000000                                            
0202LOTE PADRAO                   ANIMA       ON      NM ANIM3       010VISTA          0000000000113900000001164000000010860000000113300000001105-001770000000109900000001113039650000000009941000000000112599320000000000000000000000MOEDA CORRENTE 00000010000000000000BRANIMACNOR61020               0000000177                                            
0202LOTE PADRAO                   APPLE       DRN        AAPL34      010VISTA          0000000000368600000003731000000036860000000370000000003719+002080000000371500000003767000050000000000155000000000005734240000000000000000000000MOEDA CORRENTE 00000010000000000000BRAAPLBDR0041160               0000000208                                            
0202LOTE PADRAO                   ARCELOR     DRN        ARMT34      010VISTA          0000000000000000000000000000000000000000000000000000000000/000000000000076000000000794000000000000000000000000000000000000000000000000000000000MOEDA CORRENTE 00000010000000000000BRARMTBDR0081130               0000000000                                            
0202LOTE PADRAO                   AREZZO CO   ON      NM ARZZ3       010VISTA          0000000000214000000002152000000020920000000212000000002092-003990000000209200000002096001260000000000179000000000003793970000000000000000000000MOEDA CORRENTE 00000010000000000000BRARZZACNOR31190               0000000399                                            
0202LOTE PADRAO                   ARTERIS     ON      NM ARTR3       010VISTA          0000000000095200000000953000000009310000000094700000000945-000730000000094500000000947002860000000001187000000000011239570000000000000000000000MOEDA CORRENTE 00000010000000000000BRARTRACNOR31050               0000000073                                            
0202LOTE PADRAO                   ATT INC     DRN        ATTB34      010VISTA          0000000001384000000013933000000138400000001388700000013933+001570000000000000000000000000020000000000010000000000001388650000000000000000000000MOEDA CORRENTE 00000010000000000000BRATTBBDR0071140               0000000157                                            
0202LOTE PADRAO                   AVON        DRN        AVON34      010VISTA          0000000000078100000000781000000007810000000078100000000781+002490000000077300000000805000010000000000054000000000000421740000000000000000000000MOEDA CORRENTE 00000010000000000000BRAVONBDR0091210               0000000249                                            
0202LOTE PADRAO                   AZEVEDO     ON         AZEV3       010VISTA          0000000000000000000000000000000000000000000000000000000000/000000000000010000000000150000000000000000000000000000000000000000000000000000000000MOEDA CORRENTE 00000010000000000000BRAZEVACNOR01160               0000000000                                            
0202LOTE PADRAO                   AZEVEDO     PN         AZEV4       010VISTA          0000000000000000000000000000000000000000000000000000000000/000000000000009000000000120000000000000000000000000000000000000000000000000000000000MOEDA CORRENTE 00000010000000000000BRAZEVACNPR71160               0000000000                                            
0202LOTE PADRAO                   B2W DIGITAL ON      NM BTOW3       010VISTA          0000000000141400000001419000000013750000000140200000001412+000490000000139000000001412027010000000009685000000000135758970000000000000000000000MOEDA CORRENTE 00000010000000000000BRBTOWACNOR81070               0000000049                                            
0202LOTE PADRAO                   BAHEMA      ON         BAHI3       010VISTA          0000000000028800000000288000000002880000000028800000000288=000000000000027200000000290000010000000000001000000000000002880000000000000000000000MOEDA CORRENTE 00000010000000000000BRBAHIACNOR10680               0000000000                                            
0202LOTE PADRAO                   BANCO PAN   PN      N1 BPAN4       010VISTA          0000000000019000000000190000000001850000000018800000000188-001050000000018500000000187000080000000000021000000000000039390000000000000000000000MOEDA CORRENTE 00000010000000000000BRBPANACNPR11040               0000000105                                            
0202LOTE PADRAO                   BANESE      ON         BGIP3       010VISTA          0000000000000000000000000000000000000000000000000000000000/000000000000219300000002258000000000000000000000000000000000000000000000000000000000MOEDA CORRENTE 00000010000000000000BRBGIPACNOR11860               0000000000                                            
0202LOTE PADRAO                   BANESE      PN         BGIP4       010VISTA          0000000000128000000001280000000012800000000128000000001280-001530000000127500000001300000020000000000002000000000000025600000000000000000000000MOEDA CORRENTE 00000010000000000000BRBGIPACNPR81860               0000000153                                            
0202LOTE PADRAO                   BANESTES    ON         BEES3       010VISTA          0000000000019400000000194000000001940000000019400000000194+000510000000019000000000193000010000000000003000000000000005820000000000000000000000MOEDA CORRENTE 00000010000000000000BRBEESACNOR92780               0000000051                                            
0202LOTE PADRAO                   BANESTES    PN         BEES4       010VISTA          0000000000000000000000000000000000000000000000000000000000/000000000000018700000000198000000000000000000000000000000000000000000000000000000000MOEDA CORRENTE 00000010000000000000BRBEESACNPR62030               0000000000                                            
0202LOTE PADRAO                   BANK AMERICADRN        BOAC34      010VISTA          0000000000497000000004970000000049450000000495100000004945+000830000000490600000005009000030000000000012000000000000594150000000000000000000000MOEDA CORRENTE 00000010000000000000BRBOACBDR0041220               0000000083                                            
0202LOTE PADRAO                   BANPARA     ON         BPAR3       010VISTA          0000000000000000000000000000000000000000000000000000000000/000000000000150000000000000000000000000000000000000000000000000000000000000000000000MOEDA CORRENTE 00000010000000000000BRBPARACNOR51370               0000000000                                            
0202LOTE PADRAO                   BANRISUL    ON  EJ  N1 BRSR3       010VISTA          0000000000000000000000000000000000000000000000000000000000/000000000000083500000000000000000000000000000000000000000000000000000000000000000000MOEDA CORRENTE 00000010000000000000BRBRSRACNOR31430               0000000000                                            
0202LOTE PADRAO                   BANRISUL    PNA EJ  N1 BRSR5       010VISTA          0000000000000000000000000000000000000000000000000000000000/000000000000070000000000000000000000000000000000000000000000000000000000000000000000MOEDA CORRENTE 00000010000000000000BRBRSRACNPA61470               0000000000                                            
0202LOTE PADRAO                   BANRISUL    PNB EJ  N1 BRSR6       010VISTA          0000000000072700000000733000000007010000000071600000000710-000830000000071000000000713044360000000014765000000000105654260000000000000000000000MOEDA CORRENTE 00000010000000000000BRBRSRACNPB41460               0000000083                                            
0202LOTE PADRAO                   BANSANTANDERDR3        BSAN33      010VISTA          0000000000151000000001510000000015000000000150300000001500+003440000000150000000001650000030000000000003000000000000045100000000000000000000000MOEDA CORRENTE 00000010000000000000BRBSANBDR0021050               0000000344                                            
0202LOTE PADRAO                   BARDELLA    ON         BDLL3       010VISTA          0000000000000000000000000000000000000000000000000000000000/000000000000400000000000000000000000000000000000000000000000000000000000000000000000MOEDA CORRENTE 00000010000000000000BRBDLLACNOR11490               0000000000                                            
0202LOTE PADRAO                   BARDELLA    PN         BDLL4       010VISTA          0000000000000000000000000000000000000000000000000000000000/000000000000341000000003840000000000000000000000000000000000000000000000000000000000MOEDA CORRENTE 00000010000000000000BRBDLLACNPR81510               0000000000                                            
0202LOTE PADRAO                   BATTISTELLA ON         BTTL3       010VISTA          0000000000000000000000000000000000000000000000000000000000/000000000000050000000001300000000000000000000000000000000000000000000000000000000000MOEDA CORRENTE 00000010000000000000BRBTTLACNOR01060               0000000000                                            
0202LOTE PADRAO                   BATTISTELLA PN         BTTL4       010VISTA          0000000000000000000000000000000000000000000000000000000000/000000000000050000000001100000000000000000000000000000000000000000000000000000000000MOEDA CORRENTE 00000010000000000000BRBTTLACNPR71060               0000000000                                            
0202LOTE PADRAO                   BAUMER      PN         BALM4       010VISTA          0000000000000000000000000000000000000000000000000000000000/000000000000078100000001400000000000000000000000000000000000000000000000000000000000MOEDA CORRENTE 00000010000000000000BRBALMACNPR20460               0000000000                                            
0202LOTE PADRAO                   BB ETF SP DVCI         BBSD11      010VISTA          0000000000329900000003299000000032990000000329900000003299-001160000000245100000000000000010000000000010000000000000329900000000000000000000000MOEDA CORRENTE 00000010000000000000BRBBSDCTF0001000               0000000116                                            
0202LOTE PADRAO                   BBSEGURIDADEON      NM.BBSE3       010VISTA          0000000000316900000003190000000030640000000312300000003064-002380000000306400000003100128610000000037971000000001186015930000000000000000000000MOEDA CORRENTE 00000010000000000000BRBBSEACNOR51060               0000000238                                            
0202LOTE PADRAO                   BERKSHIRE   DRN        BERK34      010VISTA          0000000005042100000050421000000504210000005042100000050421-000350000004735100000051200000010000000000004000000000002016840000000000000000000000MOEDA CORRENTE 00000010000000000000BRBERKBDR0021000               0000000035                                            
0202LOTE PADRAO                   BETAPART    ON      MB BETP3B      010VISTA          0000000000000000000000000000000000000000000000000000000000/000000000000000100000000000000000000000000000000000000000000000000000000000000000000MOEDA CORRENTE 00000010000000000000BRBETPACNOR31150               0000000000                                            
0202LOTE PADRAO                   BIC MONARK  ON         BMKS3       010VISTA          0000000000000000000000000000000000000000000000000000000000/000000000002450000000025000000000000000000000000000000000000000000000000000000000000MOEDA CORRENTE 00000010000000000000BRBMKSACNOR91570               0000000000                                            
0202LOTE PADRAO                   BIOMM       ON      MA BIOM3       010VISTA          0000000000000000000000000000000000000000000000000000000000/000000000000050100000000750000000000000000000000000000000000000000000000000000000000MOEDA CORRENTE 00000010000000000000BRBIOMACNOR21040               0000000000                                            
0202LOTE PADRAO                   BIOSEV      ON      NM BSEV3       010VISTA          0000000000069800000000698000000006980000000069800000000698-000140000000069500000000699000010000000000001000000000000006980000000000000000000000MOEDA CORRENTE 00000010000000000000BRBSEVACNOR31010               0000000014                                            
0202LOTE PADRAO                   BMFBOVESPA  ON      NM.BVMF3       010VISTA          0000000000160000000001642000000015260000000158500000001529-003220000000152900000001535364510000000249979000000003962939450000000000000000000000MOEDA CORRENTE 00000010000000000000BRBVMFACNOR31360               0000000322                                            
0202LOTE PADRAO                   BNY MELLON  DRN        BONY34      010VISTA          0000000001359600000013596000000135960000001359600000013596+000410000000000000000000000000010000000000003000000000000407880000000000000000000000MOEDA CORRENTE 00000010000000000000BRBONYBDR0011020               0000000041                                            
0202LOTE PADRAO                   BOEING      DRN        BOEI34      010VISTA          0000000004574400000045744000000457440000004574400000045744+001830000000000000000000000000010000000000067000000000030648480000000000000000000000MOEDA CORRENTE 00000010000000000000BRBOEIBDR0031160               0000000183                                            
0202LOTE PADRAO                   BOMBRIL     PN         BOBR4       010VISTA          0000000000000000000000000000000000000000000000000000000000/000000000000014500000000160000000000000000000000000000000000000000000000000000000000MOEDA CORRENTE 00000010000000000000BRBOBRACNPR31280               0000000000                                            
0202LOTE PADRAO                   BOSTON PROP DRN        BOXP34      010VISTA          0000000000000000000000000000000000000000000000000000000000/000000000000441900000004491000000000000000000000000000000000000000000000000000000000MOEDA CORRENTE 00000010000000000000BRBOXPBDR0081020               0000000000                                            
0202LOTE PADRAO                   BR BROKERS  ON      NM BBRK3       010VISTA          0000000000017800000000195000000001770000000018800000000195+008930000000019200000000195004700000000001520000000000002860620000000000000000000000MOEDA CORRENTE 00000010000000000000BRBBRKACNOR41100               0000000893                                            
0202LOTE PADRAO                   BR INSURANCEON      NM BRIN3       010VISTA          0000000000245000000002450000000022700000000236500000002341-001840000000230000000002341000480000000000216000000000005108110000000000000000000000MOEDA CORRENTE 00000010000000000000BRBRINACNOR31110               0000000184                                            
0202LOTE PADRAO                   BR MALLS PARON      NM.BRML3       010VISTA          0000000000154100000001595000000015230000000157000000001550=000000000000155000000001554136520000000037558000000000589549260000000000000000000000MOEDA CORRENTE 00000010000000000000BRBRMLACNOR91080               0000000000                                            
0202LOTE PADRAO                   BR PHARMA   ON      NM BPHA3       010VISTA          0000000000056000000000580000000005120000000054000000000512-007580000000051200000000520001870000000000830000000000004480490000000000000000000000MOEDA CORRENTE 00000010000000000000BRBPHAACNOR61040               0000000758                                            
0202LOTE PADRAO                   BR PROPERT  ON      NM BRPR3       010VISTA          0000000000087000000000870000000008430000000085700000000849-001840000000084300000000849006420000000003514000000000030112100000000000000000000000MOEDA CORRENTE 00000010000000000000BRBRPRACNOR91160               0000000184                                            
0202LOTE PADRAO                   BRADESCO    ON      N1.BBDC3       010VISTA          0000000000299000000003066000000029540000000300100000002967-000730000000296100000002967070750000000015082000000000452565160000000000000000000000MOEDA CORRENTE 00000010000000000000BRBBDCACNOR16450               0000000073                                            
0202LOTE PADRAO                   BRADESCO    PN      N1.BBDC4       010VISTA          0000000000268600000002767000000026550000000270700000002660-000630000000266000000002664345230000000157959000000004276566550000000000000000000000MOEDA CORRENTE 00000010000000000000BRBBDCACNPR86450               0000000063                                            
0202LOTE PADRAO                   BRADESPAR   ON      N1 BRAP3       010VISTA          0000000000045500000000462000000004500000000045500000000450-001310000000045000000000460000270000000000060000000000000273140000000000000000000000MOEDA CORRENTE 00000010000000000000BRBRAPACNOR51290               0000000131                                            
0202LOTE PADRAO                   BRADESPAR   PN      N1.BRAP4       010VISTA          0000000000052500000000525000000004940000000050700000000503-002700000000050300000000507078260000000066857000000000339149540000000000000000000000MOEDA CORRENTE 00000010000000000000BRBRAPACNPR21290               0000000270                                            
0202LOTE PADRAO                   BRASIL      ON  EJ  NM.BBAS3       010VISTA          0000000000230000000002362000000021550000000229800000002220-002460000000222000000002221381540000000210197000000004831271280000000000000000000000MOEDA CORRENTE 00000010000000000000BRBBASACNOR32590               0000000246                                            
0202LOTE PADRAO                   BRASILAGRO  ON      NM AGRO3       010VISTA          0000000000112700000001148000000011110000000112400000001130+000350000000112200000001130000920000000000456000000000005123690000000000000000000000MOEDA CORRENTE 00000010000000000000BRAGROACNOR71040               0000000035                                            
0202LOTE PADRAO                   BRASKEM     ON      N1 BRKM3       010VISTA          0000000000174500000001800000000017450000000177700000001800+003150000000167400000001814000460000000000071000000000001261380000000000000000000000MOEDA CORRENTE 00000010000000000000BRBRKMACNOR11120               0000000315                                            
0202LOTE PADRAO                   BRASKEM     PNA     N1.BRKM5       010VISTA          0000000000240600000002623000000023800000000254000000002556+006230000000254700000002556137830000000040596000000001031221800000000000000000000000MOEDA CORRENTE 00000010000000000000BRBRKMACNPA41120               0000000623                                            
0202LOTE PADRAO                   BRASKEM     PNB     N1 BRKM6       010VISTA          0000000000000000000000000000000000000000000000000000000000/000000000000120000000001600000000000000000000000000000000000000000000000000000000000MOEDA CORRENTE 00000010000000000000BRBRKMACNPB21100               0000000000                                            
0202LOTE PADRAO                   BRASMOTOR   ON         BMTO3       010VISTA          0000000000000000000000000000000000000000000000000000000000/000000000000038000000000440000000000000000000000000000000000000000000000000000000000MOEDA CORRENTE 00000010000000000000BRBMTOACNOR91860               0000000000                                            
0202LOTE PADRAO                   BRASMOTOR   PN         BMTO4       010VISTA          0000000000000000000000000000000000000000000000000000000000/000000000000041000000000434000000000000000000000000000000000000000000000000000000000MOEDA CORRENTE 00000010000000000000BRBMTOACNPR60710               0000000000                                            
0202LOTE PADRAO                   BRB BANCO   ON         BSLI3       010VISTA          0000000000000000000000000000000000000000000000000000000000/000000000000245400000000000000000000000000000000000000000000000000000000000000000000MOEDA CORRENTE 00000010000000000000BRBSLIACNOR51560               0000000000                                            
0202LOTE PADRAO                   BRB BANCO   PN         BSLI4       010VISTA          0000000000000000000000000000000000000000000000000000000000/000000000000182400000000000000000000000000000000000000000000000000000000000000000000MOEDA CORRENTE 00000010000000000000BRBSLIACNPR21560               0000000000                                            
0202LOTE PADRAO                   BRF SA      ON  ED  NM.BRFS3       010VISTA          0000000000529000000005330000000051940000000526000000005255+000090000000525500000005278087160000000015129000000000795749110000000000000000000000MOEDA CORRENTE 00000010000000000000BRBRFSACNOR81160               0000000009                                            
0202LOTE PADRAO                   BTG PACTUAL UNT        BBTG11      010VISTA          0000000000173800000001739000000016480000000169200000001739+000810000000168500000001739013890000000003160000000000053452530000000000000000000000MOEDA CORRENTE 00000010000000000000BRBBTGUNT0071130               0000000081                                            
0202LOTE PADRAO                   CABINDA PARTON      MB CABI3B      010VISTA          0000000000000000000000000000000000000000000000000000000000/000000000000000100000000000000000000000000000000000000000000000000000000000000000000MOEDA CORRENTE 00000010000000000000BRCABIACNOR21140               0000000000                                            
0202LOTE PADRAO                   CACONDE PARTON      MB CACO3B      010VISTA          0000000000000000000000000000000000000000000000000000000000/000000000000000100000000000000000000000000000000000000000000000000000000000000000000MOEDA CORRENTE 00000010000000000000BRCACOACNOR81130               0000000000                                            
0202LOTE PADRAO                   CAIXAETFXBOVCI         XBOV11      010VISTA          0000000000000000000000000000000000000000000000000000000000/000000000000385900000000000000000000000000000000000000000000000000000000000000000000MOEDA CORRENTE 00000010000000000000BRXBOVCTF0051000               0000000000                                            
0202LOTE PADRAO                   CAMBUCI     ON         CAMB3       010VISTA          0000000000000000000000000000000000000000000000000000000000/000000000000000100000000000000000000000000000000000000000000000000000000000000000000MOEDA CORRENTE 00000010000000000000BRCAMBACNOR41160               0000000000                                            
0202LOTE PADRAO                   CAMBUCI     PN         CAMB4       010VISTA          0000000000000000000000000000000000000000000000000000000000/000000000000007000000000083000000000000000000000000000000000000000000000000000000000MOEDA CORRENTE 00000010000000000000BRCAMBACNPR11170               0000000000                                            
0202LOTE PADRAO                   CAPITALPART ON      MB CPTP3B      010VISTA          0000000000003900000000039000000000390000000003900000000039-002500000000000100000000040000010000000000001000000000000000390000000000000000000000MOEDA CORRENTE 00000010000000000000BRCPTPACNOR71050               0000000250                                            
0202LOTE PADRAO                   CASAN       ON         CASN3       010VISTA          0000000000000000000000000000000000000000000000000000000000/000000000000000000000001000000000000000000000000000000000000000000000000000000000000MOEDA CORRENTE 00000010000000000000BRCASNACNOR61110               0000000000                                            
0202LOTE PADRAO                   CASAN       PN         CASN4       010VISTA          0000000000000000000000000000000000000000000000000000000000/000000000000000000000000995000000000000000000000000000000000000000000000000000000000MOEDA CORRENTE 00000010000000000000BRCASNACNPR31110               0000000000                                            
0202LOTE PADRAO                   CATERPILLAR DRN        CATP34      010VISTA          0000000002627200000026272000000262720000002627200000026272+005800000002623300000026643000010000000000002000000000000525440000000000000000000000MOEDA CORRENTE 00000010000000000000BRCATPBDR0031180               0000000580                                            
0202LOTE PADRAO                   CCR SA      ON      NM.CCRO3       010VISTA          0000000000145700000001475000000014030000000143600000001442-000410000000144200000001447156050000000053898000000000774125540000000000000000000000MOEDA CORRENTE 00000010000000000000BRCCROACNOR21280               0000000041                                            
0202LOTE PADRAO                   CCX CARVAO  ON      NM CCXC3       010VISTA          0000000000032600000000326000000003050000000031700000000320-001840000000030300000000320000120000000000033000000000000104670000000000000000000000MOEDA CORRENTE 00000010000000000000BRCCXCACNOR51010               0000000184                                            
0202LOTE PADRAO                   CEB         ON         CEBR3       010VISTA          0000000000000000000000000000000000000000000000000000000000/000000000000070000000001880000000000000000000000000000000000000000000000000000000000MOEDA CORRENTE 00000010000000000000BRCEBRACNOR51150               0000000000                                            
0202LOTE PADRAO                   CEB         PNA        CEBR5       010VISTA          0000000000000000000000000000000000000000000000000000000000/000000000000000000000002813000000000000000000000000000000000000000000000000000000000MOEDA CORRENTE 00000010000000000000BRCEBRACNPA81140               0000000000                                            
0202LOTE PADRAO                   CEB         PNB        CEBR6       010VISTA          0000000000000000000000000000000000000000000000000000000000/000000000000060000000001400000000000000000000000000000000000000000000000000000000000MOEDA CORRENTE 00000010000000000000BRCEBRACNPB61140               0000000000                                            
0202LOTE PADRAO                   CEDRO       ON      N1 CEDO3       010VISTA          0000000000000000000000000000000000000000000000000000000000/000000000000020000000000750000000000000000000000000000000000000000000000000000000000MOEDA CORRENTE 00000010000000000000BRCEDOACNOR80960               0000000000                                            
0202LOTE PADRAO                   CEDRO       PN      N1 CEDO4       010VISTA          0000000000000000000000000000000000000000000000000000000000/000000000000045000000000679000000000000000000000000000000000000000000000000000000000MOEDA CORRENTE 00000010000000000000BRCEDOACNPR51280               0000000000                                            
0202LOTE PADRAO                   CEEE-D      ON      N1 CEED3       010VISTA          0000000000000000000000000000000000000000000000000000000000/000000000000004200000000060000000000000000000000000000000000000000000000000000000000MOEDA CORRENTE 00000010000000000000BRCEEDACNOR91010               0000000000                                            
0202LOTE PADRAO                   CEEE-D      PN      N1 CEED4       010VISTA          0000000000000000000000000000000000000000000000000000000000/000000000000004100000000065000000000000000000000000000000000000000000000000000000000MOEDA CORRENTE 00000010000000000000BRCEEDACNPR61010               0000000000                                            
0202LOTE PADRAO                   CEEE-GT     ON      N1 EEEL3       010VISTA          0000000000000000000000000000000000000000000000000000000000/000000000000004600000000064000000000000000000000000000000000000000000000000000000000MOEDA CORRENTE 00000010000000000000BREEELACNOR81020               0000000000                                            
0202LOTE PADRAO                   CEEE-GT     PN      N1 EEEL4       010VISTA          0000000000007000000000070000000000700000000007000000000070-006660000000007000000000075000020000000000002000000000000001400000000000000000000000MOEDA CORRENTE 00000010000000000000BREEELACNPR51020               0000000666                                            
0202LOTE PADRAO                   CELESC      ON      N2 CLSC3       010VISTA          0000000000000000000000000000000000000000000000000000000000/000000000000000000000002800000000000000000000000000000000000000000000000000000000000MOEDA CORRENTE 00000010000000000000BRCLSCACNOR61310               0000000000                                            
0202LOTE PADRAO                   CELESC      PN      N2 CLSC4       010VISTA          0000000000127900000001280000000012600000000127400000001260-001090000000125000000001265000540000000000227000000000002891670000000000000000000000MOEDA CORRENTE 00000010000000000000BRCLSCACNPR31100               0000000109                                            
0202LOTE PADRAO                   CELGENE CORPDRN        CLGN34      010VISTA          0000000000000000000000000000000000000000000000000000000000/000000000003605700000036635000000000000000000000000000000000000000000000000000000000MOEDA CORRENTE 00000010000000000000BRCLGNBDR0021000               0000000000                                            
0202LOTE PADRAO                   CELGPAR     ON         GPAR3       010VISTA          0000000000000000000000000000000000000000000000000000000000/000000000000020000000000000000000000000000000000000000000000000000000000000000000000MOEDA CORRENTE 00000010000000000000BRGPARACNOR41020               0000000000                                            
0202LOTE PADRAO                   CELPA       ON         CELP3       010VISTA          0000000000020000000000200000000002000000000020000000000200+001010000000018500000000200000030000000000042000000000000084000000000000000000000000MOEDA CORRENTE 00000010000000000000BRCELPACNOR81130               0000000101                                            
0202LOTE PADRAO                   CELPA       PNA        CELP5       010VISTA          0000000000000000000000000000000000000000000000000000000000/000000000000011100000000230000000000000000000000000000000000000000000000000000000000MOEDA CORRENTE 00000010000000000000BRCELPACNPA11150               0000000000                                            
0202LOTE PADRAO                   CELPA       PNC        CELP7       010VISTA          0000000000018000000000180000000001800000000018000000000180+020000000000010000000000180000020000000000002000000000000003600000000000000000000000MOEDA CORRENTE 00000010000000000000BRCELPACNPC71150               0000002000                                            
0202LOTE PADRAO                   CELPE       PNA        CEPE5       010VISTA          0000000000000000000000000000000000000000000000000000000000/000000000000160000000002397000000000000000000000000000000000000000000000000000000000MOEDA CORRENTE 00000010000000000000BRCEPEACNPA61540               0000000000                                            
0202LOTE PADRAO                   CELUL IRANI ON         RANI3       010VISTA          0000000000023600000000236000000002360000000023600000000236+000420000000023500000000236000010000000000001000000000000002360000000000000000000000MOEDA CORRENTE 00000010000000000000BRRANIACNOR50490               0000000042                                            
0202LOTE PADRAO                   CELUL IRANI PN         RANI4       010VISTA          0000000000000000000000000000000000000000000000000000000000/000000000000031000000000311000000000000000000000000000000000000000000000000000000000MOEDA CORRENTE 00000010000000000000BRRANIACNPR20500               0000000000                                            
0202LOTE PADRAO                   CEMAR       ON      MB ENMA3B      010VISTA          0000000000181500000001850000000018150000000183900000001849+005650000000150000000001850000090000000000175000000000003217550000000000000000000000MOEDA CORRENTE 00000010000000000000BRENMAACNOR51130               0000000565                                            
0202LOTE PADRAO                   CEMEPE      ON         MAPT3       010VISTA          0000000000000000000000000000000000000000000000000000000000/000000000000000100000001000000000000000000000000000000000000000000000000000000000000MOEDA CORRENTE 00000010000000000000BRMAPTACNOR81060               0000000000                                            
0202LOTE PADRAO                   CEMEPE      PN         MAPT4       010VISTA          0000000000000000000000000000000000000000000000000000000000/000000000000017500000000250000000000000000000000000000000000000000000000000000000000MOEDA CORRENTE 00000010000000000000BRMAPTACNPR51060               0000000000                                            
0202LOTE PADRAO                   CEMIG       ON      N1 CMIG3       010VISTA          0000000000078500000000809000000007220000000075600000000722-005000000000072200000000745007820000000002149000000000016243610000000000000000000000MOEDA CORRENTE 00000010000000000000BRCMIGACNOR62160               0000000500                                            
0202LOTE PADRAO                   CEMIG       PN      N1.CMIG4       010VISTA          0000000000078400000000784000000007210000000073800000000730-005190000000072700000000730162250000000098568000000000727364050000000000000000000000MOEDA CORRENTE 00000010000000000000BRCMIGACNPR32160               0000000519                                            
0202LOTE PADRAO                   CESP        ON      N1 CESP3       010VISTA          0000000000118900000001195000000011650000000118100000001165-001680000000116100000001199000100000000000010000000000000118070000000000000000000000MOEDA CORRENTE 00000010000000000000BRCESPACNOR31630               0000000168                                            
0202LOTE PADRAO                   CESP        PNA     N1 CESP5       010VISTA          0000000000000000000000000000000000000000000000000000000000/000000000000120000000001560000000000000000000000000000000000000000000000000000000000MOEDA CORRENTE 00000010000000000000BRCESPACNPA61110               0000000000                                            
0202LOTE PADRAO                   CESP        PNB     N1.CESP6       010VISTA          0000000000160900000001609000000015500000000158100000001573-002170000000157300000001583032390000000005409000000000085507650000000000000000000000MOEDA CORRENTE 00000010000000000000BRCESPACNPB41220               0000000217                                            
0202LOTE PADRAO                   CETIP       ON      NM.CTIP3       010VISTA          0000000000402200000004082000000039910000000401400000004010-000660000000401000000004013059000000000024278000000000974458460000000000000000000000MOEDA CORRENTE 00000010000000000000BRCTIPACNOR21370               0000000066                                            
0202LOTE PADRAO                   CHEVRON     DRN        CHVX34      010VISTA          0000000001706300000017108000000170630000001708100000017108+001210000001710700000017267000020000000000010000000000001708100000000000000000000000MOEDA CORRENTE 00000010000000000000BRCHVXBDR0081200               0000000121                                            
0202LOTE PADRAO                   CIA HERING  ON      NM.HGTX3       010VISTA          0000000000155500000001569000000014510000000150900000001451-006680000000145100000001473042310000000008529000000000128691610000000000000000000000MOEDA CORRENTE 00000010000000000000BRHGTXACNOR91320               0000000668                                            
0202LOTE PADRAO                   CIELO       ON  EDJ NM.CIEL3       010VISTA          0000000000338800000003394000000032820000000332200000003325-000710000000332500000003345251990000000056114000000001863858310000000000000000000000MOEDA CORRENTE 00000010000000000000BRCIELACNOR31190               0000000071                                            
0202LOTE PADRAO                   CISCO       DRN        CSCO34      010VISTA          0000000001011500000010115000000100650000001008000000010065-001420000000998200000010161000020000000000017000000000001713550000000000000000000000MOEDA CORRENTE 00000010000000000000BRCSCOBDR0041200               0000000142                                            
0202LOTE PADRAO                   CITIGROUP   DRN        CTGP34      010VISTA          0000000001544100000015641000000154410000001551300000015525+001800000001540200000015663000030000000000009000000000001396210000000000000000000000MOEDA CORRENTE 00000010000000000000BRCTGPBDR0001210               0000000180                                            
0202LOTE PADRAO                   COBRASMA    ON         CBMA3       010VISTA          0000000000000000000000000000000000000000000000000000000000/000000000000000100000000003000000000000000000000000000000000000000000000000000000000MOEDA CORRENTE 00000010000000000000BRCBMAACNOR41240               0000000000                                            
0202LOTE PADRAO                   COBRASMA    PN         CBMA4       010VISTA          0000000000000300000000003000000000030000000000300000000003=000000000000000200000000003000070000000001200000000000000036000000000000000000000000MOEDA CORRENTE 00000010000000000000BRCBMAACNPR11240               0000000000                                            
0202LOTE PADRAO                   COCA COLA   DRN ED     COCA34      010VISTA          0000000001639000000016390000000163900000001639000000016390+000990000001640000000000000000010000000000013000000000002130700000000000000000000000MOEDA CORRENTE 00000010000000000000BRCOCABDR0021180               0000000099                                            
0202LOTE PADRAO                   COELBA      ON         CEEB3       010VISTA          0000000000000000000000000000000000000000000000000000000000/000000000000000000000002510000000000000000000000000000000000000000000000000000000000MOEDA CORRENTE 00000010000000000000BRCEEBACNOR31660               0000000000                                            
0202LOTE PADRAO                   COELBA      PNA        CEEB5       010VISTA          0000000000000000000000000000000000000000000000000000000000/000000000000273000000000000000000000000000000000000000000000000000000000000000000000MOEDA CORRENTE 00000010000000000000BRCEEBACNPA61600               0000000000                                            
0202LOTE PADRAO                   COELCE      ON         COCE3       010VISTA          0000000000000000000000000000000000000000000000000000000000/000000000000290000000003550000000000000000000000000000000000000000000000000000000000MOEDA CORRENTE 00000010000000000000BRCOCEACNOR01340               0000000000                                            
0202LOTE PADRAO                   COELCE      PNA        COCE5       010VISTA          0000000000345200000003452000000033960000000341600000003400-001160000000340000000003436000170000000000035000000000001195770000000000000000000000MOEDA CORRENTE 00000010000000000000BRCOCEACNPA31350               0000000116                                            
0202LOTE PADRAO                   COLGATE     DRN        COLG34      010VISTA          0000000002468200000024682000000246820000002468200000024682-000140000002460500000024989000010000000000003000000000000740460000000000000000000000MOEDA CORRENTE 00000010000000000000BRCOLGBDR0001190               0000000014                                            
0202LOTE PADRAO                   COMCAST     DRN        CMCS34      010VISTA          0000000002138000000021520000000213800000002140900000021520+001070000002137400000021725000020000000000019000000000004067800000000000000000000000MOEDA CORRENTE 00000010000000000000BRCMCSBDR0081160               0000000107                                            
0202LOTE PADRAO                   COMGAS      ON         CGAS3       010VISTA          0000000000355800000003558000000033810000000346200000003450=000000000000339100000003550000040000000000004000000000000138490000000000000000000000MOEDA CORRENTE 00000010000000000000BRCGASACNOR01380               0000000000                                            
0202LOTE PADRAO                   COMGAS      PNA        CGAS5       010VISTA          0000000000377900000003780000000037420000000375500000003754-001210000000374300000003776000710000000000141000000000005294270000000000000000000000MOEDA CORRENTE 00000010000000000000BRCGASACNPA31350               0000000121                                            
0202LOTE PADRAO                   CONST A LINDON         CALI3       010VISTA          0000000000000000000000000000000000000000000000000000000000/000000000000500000000000000000000000000000000000000000000000000000000000000000000000MOEDA CORRENTE 00000010000000000000BRCALIACNOR11290               0000000000                                            
0202LOTE PADRAO                   CONST A LINDPN         CALI4       010VISTA          0000000000000000000000000000000000000000000000000000000000/000000000000500000000024000000000000000000000000000000000000000000000000000000000000MOEDA CORRENTE 00000010000000000000BRCALIACNPR81330               0000000000                                            
0202LOTE PADRAO                   CONTAX      ON      N2 CTAX3       010VISTA          0000000000001600000000016000000000140000000001500000000016+014280000000001500000000016001530000000017502000000000002683580000000000000000000000MOEDA CORRENTE 00000010000000000000BRCTAXACNOR31160               0000001428                                            
0202LOTE PADRAO                   CONTAX      PN      N2 CTAX4       010VISTA          0000000000001500000000017000000000140000000001600000000017+013330000000001600000000017005090000000107110000000000017047360000000000000000000000MOEDA CORRENTE 00000010000000000000BRCTAXACNPR01170               0000001333                                            
0202LOTE PADRAO                   CONTAX      UNT     N2 CTAX11      010VISTA          0000000000007400000000085000000000710000000007700000000085+025000000000008500000000086010480000000024765000000000019162700000000000000000000000MOEDA CORRENTE 00000010000000000000BRCTAXCDAM191030               0000002500                                            
0202LOTE PADRAO                   COPASA      ON      NM CSMG3       010VISTA          0000000000169100000001734000000016590000000169500000001716+004000000000170300000001716012300000000002431000000000041214010000000000000000000000MOEDA CORRENTE 00000010000000000000BRCSMGACNOR51360               0000000400                                            
0202LOTE PADRAO                   COPEL       ON      N1 CPLE3       010VISTA          0000000000185000000001887000000017630000000180600000001798-002700000000175600000001798005290000000001491000000000026923920000000000000000000000MOEDA CORRENTE 00000010000000000000BRCPLEACNOR81320               0000000270                                            
0202LOTE PADRAO                   COPEL       PNB     N1.CPLE6       010VISTA          0000000000284800000002908000000027600000000284200000002800-002020000000280000000002855047820000000009407000000000267361020000000000000000000000MOEDA CORRENTE 00000010000000000000BRCPLEACNPB91290               0000000202                                            
0202LOTE PADRAO                   COPHILLIPS  DRN        COPH34      010VISTA          0000000000361100000003611000000036110000000361100000003611+000300000000361000000003667000010000000000004000000000000144440000000000000000000000MOEDA CORRENTE 00000010000000000000BRCOPHBDR0091170               0000000030                                            
0202LOTE PADRAO                   COR RIBEIRO PN         CORR4       010VISTA          0000000000000000000000000000000000000000000000000000000000/000000000000000000000010000000000000000000000000000000000000000000000000000000000000MOEDA CORRENTE 00000010000000000000BRCORRACNPR70170               0000000000                                            
0202LOTE PADRAO                   COSAN       ON      NM.CSAN3       010VISTA          0000000000286100000002912000000028030000000287800000002883+000270000000288300000002884043030000000006956000000000200183770000000000000000000000MOEDA CORRENTE 00000010000000000000BRCSANACNOR61140               0000000027                                            
0202LOTE PADRAO                   COSAN LOG   ON      NM RLOG3       010VISTA          0000000000006600000000067000000000600000000006300000000060-007690000000006000000000061005870000000016610000000000010488020000000000000000000000MOEDA CORRENTE 00000010000000000000BRRLOGACNOR41010               0000000769                                            
0202LOTE PADRAO                   COSAN LTD   DR3        CZLT33      010VISTA          0000000000153300000001552000000015000000000153700000001552-000510000000155200000001558000850000000000142000000000002182060000000000000000000000MOEDA CORRENTE 00000010000000000000BRCZLTBDR0091080               0000000051                                            
0202LOTE PADRAO                   COSERN      ON         CSRN3       010VISTA          0000000000000000000000000000000000000000000000000000000000/000000000000090000000001503000000000000000000000000000000000000000000000000000000000MOEDA CORRENTE 00000010000000000000BRCSRNACNOR01560               0000000000                                            
0202LOTE PADRAO                   COSERN      PNA        CSRN5       010VISTA          0000000000000000000000000000000000000000000000000000000000/000000000000084000000000000000000000000000000000000000000000000000000000000000000000MOEDA CORRENTE 00000010000000000000BRCSRNACNPA31560               0000000000                                            
0202LOTE PADRAO                   COSERN      PNB        CSRN6       010VISTA          0000000000000000000000000000000000000000000000000000000000/000000000000084000000000000000000000000000000000000000000000000000000000000000000000MOEDA CORRENTE 00000010000000000000BRCSRNACNPB11570               0000000000                                            
0202LOTE PADRAO                   COTEMINAS   ON         CTNM3       010VISTA          0000000000000000000000000000000000000000000000000000000000/000000000000021100000000300000000000000000000000000000000000000000000000000000000000MOEDA CORRENTE 00000010000000000000BRCTNMACNOR91300               0000000000                                            
0202LOTE PADRAO                   COTEMINAS   PN         CTNM4       010VISTA          0000000000000000000000000000000000000000000000000000000000/000000000000024100000000270000000000000000000000000000000000000000000000000000000000MOEDA CORRENTE 00000010000000000000BRCTNMACNPR61290               0000000000                                            
0202LOTE PADRAO                   COTY INC    DRN        COTY34      010VISTA          0000000000000000000000000000000000000000000000000000000000/000000000000489700000004979000000000000000000000000000000000000000000000000000000000MOEDA CORRENTE 00000010000000000000BRCOTYBDR0061010               0000000000                                            
0202LOTE PADRAO                   CPFL ENERGIAON      NM.CPFE3       010VISTA          0000000000187500000001889000000018380000000185200000001847-001490000000184700000001853081240000000013363000000000247537690000000000000000000000MOEDA CORRENTE 00000010000000000000BRCPFEACNOR01250               0000000149                                            
0202LOTE PADRAO                   CPFL RENOVAVON      NM CPRE3       010VISTA          0000000000129400000001294000000012780000000128600000001278+001340000000111100000001269000020000000000002000000000000025720000000000000000000000MOEDA CORRENTE 00000010000000000000BRCPREACNOR51000               0000000134                                            
0202LOTE PADRAO                   CR2         ON      NM CRDE3       010VISTA          0000000000015100000000151000000001510000000015100000000151-000650000000014200000000151000030000000000117000000000000176670000000000000000000000MOEDA CORRENTE 00000010000000000000BRCRDEACNOR11090               0000000065                                            
0202LOTE PADRAO                   CREMER      ON         CREM3       010VISTA          0000000000000000000000000000000000000000000000000000000000/000000000000114000000001350000000000000000000000000000000000000000000000000000000000MOEDA CORRENTE 00000010000000000000BRCREMACNOR21740               0000000000                                            
0202LOTE PADRAO                   CRISTAL     PNA        CRPG5       010VISTA          0000000000027200000000272000000002400000000024200000000240-014280000000023000000000249000210000000000219000000000000530050000000000000000000000MOEDA CORRENTE 00000010000000000000BRCRPGACNPA31000               0000001428                                            
0202LOTE PADRAO                   CRISTAL     PNB        CRPG6       010VISTA          0000000000028000000000280000000002400000000024100000000240-020000000000023000000000300000090000000000039000000000000094000000000000000000000000MOEDA CORRENTE 00000010000000000000BRCRPGACNPB11000               0000002000                                            
0202LOTE PADRAO                   CSU CARDSYSTON      NM CARD3       010VISTA          0000000000026900000000297000000002650000000028200000000289+009460000000028500000000289001620000000002433000000000006856630000000000000000000000MOEDA CORRENTE 00000010000000000000BRCARDACNOR91080               0000000946                                            
0202LOTE PADRAO                   CVC BRASIL  ON      NM CVCB3       010VISTA          0000000000163700000001657000000015670000000162200000001610-000920000000161000000001629023440000000003484000000000056524420000000000000000000000MOEDA CORRENTE 00000010000000000000BRCVCBACNOR11040               0000000092                                            
0202LOTE PADRAO                   CYRE COM-CCPON      NM CCPR3       010VISTA          0000000000090000000000900000000009000000000090000000000900=000000000000089000000000900000010000000000001000000000000009000000000000000000000000MOEDA CORRENTE 00000010000000000000BRCCPRACNOR91100               0000000000                                            
0202LOTE PADRAO                   CYRELA REALTON      NM.CYRE3       010VISTA          0000000000102100000001045000000009920000000102600000001012-001260000000101200000001015089610000000022918000000000235166030000000000000000000000MOEDA CORRENTE 00000010000000000000BRCYREACNOR71270               0000000126                                            
0202LOTE PADRAO                   DANAHER CORPDRN        DHER34      010VISTA          0000000000827300000008273000000082730000000827300000008273-003080000000824100000008390000010000000000008000000000000661840000000000000000000000MOEDA CORRENTE 00000010000000000000BRDHERBDR0041020               0000000308                                            
0202LOTE PADRAO                   DASA        ON         DASA3       010VISTA          0000000000120500000001205000000012050000000120500000001205=000000000000118000000001205000010000000000001000000000000012050000000000000000000000MOEDA CORRENTE 00000010000000000000BRDASAACNOR11100               0000000000                                            
0202LOTE PADRAO                   DAYCOVAL    PN      N2 DAYC4       010VISTA          0000000000085900000000859000000008590000000085900000000859+000110000000084200000000859000030000000001079000000000009268610000000000000000000000MOEDA CORRENTE 00000010000000000000BRDAYCACNPR21380               0000000011                                            
0202LOTE PADRAO                   DIMED       ON         PNVL3       010VISTA          0000000002970000000029883000000291000000002960400000029883+000610000002550000000029892000140000000000016000000000004736670000000000000000000000MOEDA CORRENTE 00000010000000000000BRPNVLACNOR91860               0000000061                                            
0202LOTE PADRAO                   DIMED       PN         PNVL4       010VISTA          0000000000000000000000000000000000000000000000000000000000/000000000000000000000017000000000000000000000000000000000000000000000000000000000000MOEDA CORRENTE 00000010000000000000BRPNVLACNPR61860               0000000000                                            
0202LOTE PADRAO                   DIRECIONAL  ON      NM DIRR3       010VISTA          0000000000057000000000578000000005400000000055500000000540-004420000000054000000000551021430000000008640000000000047935780000000000000000000000MOEDA CORRENTE 00000010000000000000BRDIRRACNOR01080               0000000442                                            
0202LOTE PADRAO                   DOC IMBITUBAON         IMBI3       010VISTA          0000000000007000000000070000000000700000000007000000000070=000000000000006500000000075000010000000000050000000000000035000000000000000000000000MOEDA CORRENTE 00000010000000000000BRIMBIACNOR40220               0000000000                                            
0202LOTE PADRAO                   DOC IMBITUBAPN         IMBI4       010VISTA          0000000000006200000000062000000000620000000006200000000062+001630000000003500000000070000010000000000030000000000000018600000000000000000000000MOEDA CORRENTE 00000010000000000000BRIMBIACNPR11140               0000000163                                            
0202LOTE PADRAO                   DOHLER      ON         DOHL3       010VISTA          0000000000000000000000000000000000000000000000000000000000/000000000000000000000001000000000000000000000000000000000000000000000000000000000000MOEDA CORRENTE 00000010000000000000BRDOHLACNOR20550               0000000000                                            
0202LOTE PADRAO                   DOHLER      PN         DOHL4       010VISTA          0000000000000000000000000000000000000000000000000000000000/000000000000040100000000439000000000000000000000000000000000000000000000000000000000MOEDA CORRENTE 00000010000000000000BRDOHLACNPR90580               0000000000                                            
0202LOTE PADRAO                   DOMMO EMPR  ON      MB CALA3B      010VISTA          0000000000000000000000000000000000000000000000000000000000/000000000000000100000000000000000000000000000000000000000000000000000000000000000000MOEDA CORRENTE 00000010000000000000BRCALAACNOR81020               0000000000                                            
0202LOTE PADRAO                   DOW CHEMICALDRN        DOWB34      010VISTA          0000000001834700000018347000000183470000001834700000018347+001810000000000000000000000000010000000000028000000000005137160000000000000000000000MOEDA CORRENTE 00000010000000000000BRDOWBBDR0061090               0000000181                                            
0202LOTE PADRAO                   DTCOM-DIRECTON         DTCY3       010VISTA          0000000000005800000000058000000000580000000005800000000058=000000000000005000000000060000010000000000009000000000000005220000000000000000000000MOEDA CORRENTE 00000010000000000000BRDTCYACNOR51070               0000000000                                            
0202LOTE PADRAO                   DUFRY AG    DR3        DAGB33      010VISTA          0000000004196500000042800000000406000000004159800000041600+001330000004160000000041749004140000000000060400000000025125460700000000000000000000MOEDA CORRENTE 00000010000000000000BRDAGBBDR0081020               0000000133                                            
0202LOTE PADRAO                   DURATEX     ON      NM DTEX3       010VISTA          0000000000073200000000754000000007110000000072500000000711-002200000000071100000000730096770000000025422000000000184291900000000000000000000000MOEDA CORRENTE 00000010000000000000BRDTEXACNOR31240               0000000220                                            
0202LOTE PADRAO                   EBAY        DRN        EBAY34      010VISTA          0000000000437700000004377000000043770000000437700000004377+001100000000436500000004459000010000000000037000000000001619490000000000000000000000MOEDA CORRENTE 00000010000000000000BREBAYBDR0091010               0000000110                                            
0202LOTE PADRAO                   ECORODOVIAS ON      NM.ECOR3       010VISTA          0000000000054800000000565000000005410000000055500000000554+001830000000055200000000554106500000000043299000000000240496740000000000000000000000MOEDA CORRENTE 00000010000000000000BRECORACNOR81110               0000000183                                            
0202LOTE PADRAO                   ELEKEIROZ   ON         ELEK3       010VISTA          0000000000000000000000000000000000000000000000000000000000/000000000000030100000000500000000000000000000000000000000000000000000000000000000000MOEDA CORRENTE 00000010000000000000BRELEKACNOR51190               0000000000                                            
0202LOTE PADRAO                   ELEKEIROZ   PN         ELEK4       010VISTA          0000000000000000000000000000000000000000000000000000000000/000000000000060100000000694000000000000000000000000000000000000000000000000000000000MOEDA CORRENTE 00000010000000000000BRELEKACNPR21200               0000000000                                            
0202LOTE PADRAO                   ELEKTRO     ON         EKTR3       010VISTA          0000000000157000000001570000000015700000000157000000001570+000190000000000000000002400000010000000000001000000000000015700000000000000000000000MOEDA CORRENTE 00000010000000000000BREKTRACNOR01360               0000000019                                            
0202LOTE PADRAO                   ELEKTRO     PN         EKTR4       010VISTA          0000000000000000000000000000000000000000000000000000000000/000000000000140100000002260000000000000000000000000000000000000000000000000000000000MOEDA CORRENTE 00000010000000000000BREKTRACNPR71360               0000000000                                            
0202LOTE PADRAO                   ELETROBRAS  ON      N1 ELET3       010VISTA          0000000000073500000000747000000007100000000072100000000710-002870000000071000000000720043700000000013533000000000097577960000000000000000000000MOEDA CORRENTE 00000010000000000000BRELETACNOR61520               0000000287                                            
0202LOTE PADRAO                   ELETROBRAS  PNA     N1 ELET5       010VISTA          0000000000000000000000000000000000000000000000000000000000/000000000000132000000001750000000000000000000000000000000000000000000000000000000000MOEDA CORRENTE 00000010000000000000BRELETACNPA90680               0000000000                                            
0202LOTE PADRAO                   ELETROBRAS  PNB     N1 ELET6       010VISTA          0000000000113300000001157000000010930000000112500000001098-001080000000109800000001103054030000000020552000000000231258450000000000000000000000MOEDA CORRENTE 00000010000000000000BRELETACNPB70680               0000000108                                            
0202LOTE PADRAO                   ELETROPAR   ON         LIPR3       010VISTA          0000000000000000000000000000000000000000000000000000000000/000000000000000000000004890000000000000000000000000000000000000000000000000000000000MOEDA CORRENTE 00000010000000000000BRLIPRACNOR71120               0000000000                                            
0202LOTE PADRAO                   ELETROPAULO ON      N2 ELPL3       010VISTA          0000000000000000000000000000000000000000000000000000000000/000000000000050000000001479000000000000000000000000000000000000000000000000000000000MOEDA CORRENTE 00000010000000000000BRELPLACNOR91280               0000000000                                            
0202LOTE PADRAO                   ELETROPAULO PN      N2 ELPL4       010VISTA          0000000000089600000000896000000008350000000086000000000845-004730000000084500000000850021640000000006115000000000052603530000000000000000000000MOEDA CORRENTE 00000010000000000000BRELPLACNPR61190               0000000473                                            
0202LOTE PADRAO                   EMAE        ON         EMAE3       010VISTA          0000000000000000000000000000000000000000000000000000000000/000000000000000100000000000000000000000000000000000000000000000000000000000000000000MOEDA CORRENTE 00000010000000000000BREMAEACNOR41070               0000000000                                            
0202LOTE PADRAO                   EMAE        PN         EMAE4       010VISTA          0000000000044900000000449000000004100000000042000000000410-010280000000039100000000410000060000000000012000000000000050390000000000000000000000MOEDA CORRENTE 00000010000000000000BREMAEACNPR11070               0000001028                                            
0202LOTE PADRAO                   EMBRAER     ON      NM.EMBR3       010VISTA          0000000000225700000002292000000022180000000224300000002253+000130000000224500000002253071780000000021034000000000471849420000000000000000000000MOEDA CORRENTE 00000010000000000000BREMBRACNOR41760               0000000013                                            
0202LOTE PADRAO                   ENCORPAR    ON         ECPR3       010VISTA          0000000000000000000000000000000000000000000000000000000000/000000000000155100000000000000000000000000000000000000000000000000000000000000000000MOEDA CORRENTE 00000010000000000000BRECPRACNOR51090               0000000000                                            
0202LOTE PADRAO                   ENCORPAR    PN         ECPR4       010VISTA          0000000000000000000000000000000000000000000000000000000000/000000000000000000000004238000000000000000000000000000000000000000000000000000000000MOEDA CORRENTE 00000010000000000000BRECPRACNPR21090               0000000000                                            
0202LOTE PADRAO                   ENERGIAS BR ON      NM.ENBR3       010VISTA          0000000000132900000001348000000012900000000131300000001308-001940000000130000000001308096670000000021712000000000284977430000000000000000000000MOEDA CORRENTE 00000010000000000000BRENBRACNOR21200               0000000194                                            
0202LOTE PADRAO                   ENERGISA    ON         ENGI3       010VISTA          0000000000000000000000000000000000000000000000000000000000/000000000000022500000000350000000000000000000000000000000000000000000000000000000000MOEDA CORRENTE 00000010000000000000BRENGIACNOR01270               0000000000                                            
0202LOTE PADRAO                   ENERGISA    PN         ENGI4       010VISTA          0000000000028000000000280000000002800000000028000000000280=000000000000028000000000289000010000000000001000000000000002800000000000000000000000MOEDA CORRENTE 00000010000000000000BRENGIACNPR71230               0000000000                                            
0202LOTE PADRAO                   ENERGISA    UNT        ENGI11      010VISTA          0000000000137500000001375000000013750000000137500000001375-001780000000135000000001375000010000000000005000000000000068750000000000000000000000MOEDA CORRENTE 00000010000000000000BRENGICDAM161170               0000000178                                            
0202LOTE PADRAO                   ENERGISA MT ON         ENMT3       010VISTA          0000000000000000000000000000000000000000000000000000000000/000000000000000000000001130000000000000000000000000000000000000000000000000000000000MOEDA CORRENTE 00000010000000000000BRENMTACNOR51030               0000000000                                            
0202LOTE PADRAO                   ENERGISA MT PN         ENMT4       010VISTA          0000000000070000000000700000000007000000000070000000000700=000000000000000000000000800000010000000000025000000000000175000000000000000000000000MOEDA CORRENTE 00000010000000000000BRENMTACNPR21030               0000000000                                            
0202LOTE PADRAO                   EQUATORIAL  ON      NM.EQTL3       010VISTA          0000000000403200000004079000000038520000000396600000003910-003690000000391000000003912099370000000020422000000000809924510000000000000000000000MOEDA CORRENTE 00000010000000000000BREQTLACNOR01180               0000000369                                            
0202LOTE PADRAO                   ESTACIO PARTON      NM.ESTC3       010VISTA          0000000000137600000001414000000013140000000137100000001350-002100000000133300000001350079060000000015297000000000209752070000000000000000000000MOEDA CORRENTE 00000010000000000000BRESTCACNOR51100               0000000210                                            
0202LOTE PADRAO                   ESTRELA     ON         ESTR3       010VISTA          0000000000000000000000000000000000000000000000000000000000/000000000000010000000000000000000000000000000000000000000000000000000000000000000000MOEDA CORRENTE 00000010000000000000BRESTRACNOR31420               0000000000                                            
0202LOTE PADRAO                   ESTRELA     PN         ESTR4       010VISTA          0000000000000000000000000000000000000000000000000000000000/000000000000005400000000055000000000000000000000000000000000000000000000000000000000MOEDA CORRENTE 00000010000000000000BRESTRACNPR01420               0000000000                                            
0202LOTE PADRAO                   ETERNIT     ON      NM ETER3       010VISTA          0000000000017400000000175000000001710000000017300000000171-001150000000017100000000172001270000000001028000000000001774690000000000000000000000MOEDA CORRENTE 00000010000000000000BRETERACNOR32300               0000000115                                            
0202LOTE PADRAO                   EUCATEX     ON      N1 EUCA3       010VISTA          0000000000000000000000000000000000000000000000000000000000/000000000000045000000000000000000000000000000000000000000000000000000000000000000000MOEDA CORRENTE 00000010000000000000BREUCAACNOR11470               0000000000                                            
0202LOTE PADRAO                   EUCATEX     PN      N1 EUCA4       010VISTA          0000000000025700000000259000000002500000000025100000000259+001560000000023800000000259000090000000000124000000000000311670000000000000000000000MOEDA CORRENTE 00000010000000000000BREUCAACNPR80340               0000000156                                            
0202LOTE PADRAO                   EVEN        ON      NM EVEN3       010VISTA          0000000000047700000000481000000004330000000045000000000448-006860000000044500000000448044840000000019610000000000088317040000000000000000000000MOEDA CORRENTE 00000010000000000000BREVENACNOR81090               0000000686                                            
0202LOTE PADRAO                   EVORA       PN  ED     PTPA4       010VISTA          0000000000000000000000000000000000000000000000000000000000/000000000000600000000007900000000000000000000000000000000000000000000000000000000000MOEDA CORRENTE 00000010000000000000BRPTPAACNPR81760               0000000000                                            
0202LOTE PADRAO                   EXCELSIOR   PN         BAUH4       010VISTA          0000000000000000000000000000000000000000000000000000000000/000000000000057600000000629000000000000000000000000000000000000000000000000000000000MOEDA CORRENTE 00000010000000000000BRBAUHACNPR31100               0000000000                                            
0202LOTE PADRAO                   EXXON MOBIL DRN        EXXO34      010VISTA          0000000000742500000007425000000074250000000742500000007425+001110000000742400000007560000010000000000012000000000000891000000000000000000000000MOEDA CORRENTE 00000010000000000000BREXXOBDR0061220               0000000111                                            
0202LOTE PADRAO                   EZTEC       ON      NM EZTC3       010VISTA          0000000000160000000001631000000015510000000159700000001565-001880000000156100000001580023090000000008260000000000131922870000000000000000000000MOEDA CORRENTE 00000010000000000000BREZTCACNOR01080               0000000188                                            
0202LOTE PADRAO                   FACEBOOK    DRN        FBOK34      010VISTA          0000000001986000000019860000000198600000001986000000019860+001370000001980200000020129000010000000000009000000000001787400000000000000000000000MOEDA CORRENTE 00000010000000000000BRFBOKBDR0061000               0000000137                                            
0202LOTE PADRAO                   FEDEX CORP  DRN ED     FDXB34      010VISTA          0000000005227500000052275000000522750000005227500000052275-004480000005227500000000000000020000000000002000000000001045500000000000000000000000MOEDA CORRENTE 00000010000000000000BRFDXBBDR0021100               0000000448                                            
0202LOTE PADRAO                   FER HERINGERON      NM FHER3       010VISTA          0000000000017000000000170000000001570000000016300000000157-007640000000015700000000165000490000000000209000000000000340770000000000000000000000MOEDA CORRENTE 00000010000000000000BRFHERACNOR51030               0000000764                                            
0202LOTE PADRAO                   FERBASA     ON      N1 FESA3       010VISTA          0000000000080000000000800000000008000000000080000000000800+002300000000076000000000800000010000000000001000000000000008000000000000000000000000MOEDA CORRENTE 00000010000000000000BRFESAACNOR81550               0000000230                                            
0202LOTE PADRAO                   FERBASA     PN      N1 FESA4       010VISTA          0000000000078000000000790000000007620000000077700000000771-001650000000077100000000776005370000000001143000000000008881400000000000000000000000MOEDA CORRENTE 00000010000000000000BRFESAACNPR50510               0000000165                                            
0202LOTE PADRAO                   FIBRIA      ON      NM.FIBR3       010VISTA          0000000000307200000003225000000030410000000315500000003225+006190000000322500000003229113620000000027150000000000856502520000000000000000000000MOEDA CORRENTE 00000010000000000000BRFIBRACNOR91040               0000000619                                            
0202LOTE PADRAO                   FINANSINOS  ON         FNCN3       010VISTA          0000000000000000000000000000000000000000000000000000000000/000000000000000100000000000000000000000000000000000000000000000000000000000000000000MOEDA CORRENTE 00000010000000000000BRFNCNACNOR60630               0000000000                                            
0202LOTE PADRAO                   FLEURY      ON      NM FLRY3       010VISTA          0000000000200000000002058000000019720000000200400000001990+001270000000199000000001995011960000000002394000000000047980410000000000000000000000MOEDA CORRENTE 00000010000000000000BRFLRYACNOR51130               0000000127                                            
0202LOTE PADRAO                   FORD MOTORS DRN        FDMO34      010VISTA          0000000000000000000000000000000000000000000000000000000000/000000000000478900000004869000000000000000000000000000000000000000000000000000000000MOEDA CORRENTE 00000010000000000000BRFDMOBDR0081160               0000000000                                            
0202LOTE PADRAO                   FORJA TAURUSON      N2 FJTA3       010VISTA          0000000000000000000000000000000000000000000000000000000000/000000000000017000000000192000000000000000000000000000000000000000000000000000000000MOEDA CORRENTE 00000010000000000000BRFJTAACNOR51550               0000000000                                            
0202LOTE PADRAO                   FORJA TAURUSPN      N2 FJTA4       010VISTA          0000000000016800000000170000000001620000000016700000000162+003180000000016200000000168000170000000000220000000000000368090000000000000000000000MOEDA CORRENTE 00000010000000000000BRFJTAACNPR21560               0000000318                                            
0202LOTE PADRAO                   FORNODEMINASON      MA FOMS3       010VISTA          0000000000000000000000000000000000000000000000000000000000/000000000000000100000000000000000000000000000000000000000000000000000000000000000000MOEDA CORRENTE 00000010000000000000BRFOMSACNOR21000               0000000000                                            
0202LOTE PADRAO                   FRAS-LE     ON      N1 FRAS3       010VISTA          0000000000037400000000385000000003530000000036900000000385+003770000000035700000000386000210000000000115000000000000424660000000000000000000000MOEDA CORRENTE 00000010000000000000BRFRASACNOR01380               0000000377                                            
0202LOTE PADRAO                   FREEPORT    DRN        FCXO34      010VISTA          0000000000000000000000000000000000000000000000000000000000/000000000000359700000003656000000000000000000000000000000000000000000000000000000000MOEDA CORRENTE 00000010000000000000BRFCXOBDR0071240               0000000000                                            
0202LOTE PADRAO                   GAFISA      ON      NM GFSA3       010VISTA          0000000000026000000000262000000002430000000025100000000250-003840000000024800000000250049150000000019181000000000048069900000000000000000000000MOEDA CORRENTE 00000010000000000000BRGFSAACNOR31100               0000000384                                            
0202LOTE PADRAO                   GE          DRN        GEOO34      010VISTA          0000000001094100000011001000000109410000001095800000011001+001410000001100000000011117000020000000000021000000000002301210000000000000000000000MOEDA CORRENTE 00000010000000000000BRGEOOBDR0001220               0000000141                                            
0202LOTE PADRAO                   GEN DYNAMICSDRN        GDBR34      010VISTA          0000000004855900000048559000000485590000004855900000048559-003180000000000000000000000000010000000000001000000000000485590000000000000000000000MOEDA CORRENTE 00000010000000000000BRGDBRBDR0021020               0000000318                                            
0202LOTE PADRAO                   GENERALSHOPPON      NM GSHP3       010VISTA          0000000000027900000000279000000002790000000027900000000279=000000000000024600000000278000010000000000001000000000000002790000000000000000000000MOEDA CORRENTE 00000010000000000000BRGSHPACNOR71000               0000000000                                            
0202LOTE PADRAO                   GER PARANAP ON         GEPA3       010VISTA          0000000000000000000000000000000000000000000000000000000000/000000000000000000000004687000000000000000000000000000000000000000000000000000000000MOEDA CORRENTE 00000010000000000000BRGEPAACNOR21330               0000000000                                            
0202LOTE PADRAO                   GER PARANAP PN         GEPA4       010VISTA          0000000000000000000000000000000000000000000000000000000000/000000000000380000000004160000000000000000000000000000000000000000000000000000000000MOEDA CORRENTE 00000010000000000000BRGEPAACNPR91400               0000000000                                            
0202LOTE PADRAO                   GERDAU      ON      N1 GGBR3       010VISTA          0000000000040000000000401000000003770000000039500000000395-000250000000038600000000395022920000000007923000000000031294220000000000000000000000MOEDA CORRENTE 00000010000000000000BRGGBRACNOR11600               0000000025                                            
0202LOTE PADRAO                   GERDAU      PN      N1.GGBR4       010VISTA          0000000000052500000000549000000005100000000053300000000528+002920000000052800000000529270710000000195924000000001045090820000000000000000000000MOEDA CORRENTE 00000010000000000000BRGGBRACNPR81600               0000000292                                            
0202LOTE PADRAO                   GERDAU MET  ON      N1 GOAU3       010VISTA          0000000000020900000000220000000002020000000021000000000204-001920000000020200000000215000970000000000631000000000001325080000000000000000000000MOEDA CORRENTE 00000010000000000000BRGOAUACNOR12400               0000000192                                            
0202LOTE PADRAO                   GERDAU MET  PN      N1.GOAU4       010VISTA          0000000000021400000000216000000001960000000020600000000201-002420000000020100000000202113550000000167647000000000345381420000000000000000000000MOEDA CORRENTE 00000010000000000000BRGOAUACNPR82410               0000000242                                            
0202LOTE PADRAO                   GOL         PN      N2 GOLL4       010VISTA          0000000000034400000000344000000002980000000031400000000306-007270000000030500000000306028040000000020812000000000065384960000000000000000000000MOEDA CORRENTE 00000010000000000000BRGOLLACNPR41230               0000000727                                            
0202LOTE PADRAO                   GOLDMANSACHSDRN        GSGI34      010VISTA          0000000000555300000005600000000055530000000557000000005600+001100000000553900000005640000030000000000067000000000003731720000000000000000000000MOEDA CORRENTE 00000010000000000000BRGSGIBDR0081220               0000000110                                            
0202LOTE PADRAO                   GP INVEST   DR3        GPIV33      010VISTA          0000000000069900000000708000000006950000000070200000000708+001720000000069500000000708000300000000000036000000000000252670000000000000000000000MOEDA CORRENTE 00000010000000000000BRGPIVBDR0031040               0000000172                                            
0202LOTE PADRAO                   GRAZZIOTIN  ON         CGRA3       010VISTA          0000000000100500000001010000000010050000000100900000001010+001000000000097000000001010000030000000000008000000000000080750000000000000000000000MOEDA CORRENTE 00000010000000000000BRCGRAACNOR20660               0000000100                                            
0202LOTE PADRAO                   GRAZZIOTIN  PN         CGRA4       010VISTA          0000000000091800000000918000000008900000000089700000000894+001360000000088500000000913000220000000000173000000000001551400000000000000000000000MOEDA CORRENTE 00000010000000000000BRCGRAACNPR90660               0000000136                                            
