00BDIN9999BOVESPA 999920170112201701121836                                                                                                                                                                                                                                                                                                                    
0101IBOVESPA                      0624480624480643420640560641330639532017011205958820170102063953+00241+00051+00371+00303+00619+00807+00619+0618505200600105999999900000046752620000000870634864600064072                                                                                                                                                    
0102IEELETRICA                    0365710365710377130374290375620376322017011203606120170102037632+00401-00038+00421+00366+00422+01206+00422+0673401500000001512828500000004318610000000075921725400037461                                                                                                                                                    
0103IVBX2                         0087380087380090060089690089820089632017011200859320170102008963+00257-00019+00269+00165+00357+00727+00357+0347904400500105071416500000027544310000000444709897900008967                                                                                                                                                    
0104IBRX BRASIL                   0256610256610264320263170263530262822017011202453820170102026282+00242+00042+00357+00288+00603+00806+00603+0584808601200210099999900000053499730000000959677285200026327                                                                                                                                                    
0106IBRX 50                       0104300104300107430106920107030106722017011200995920170102010672+00233+00049+00358+00293+00602+00785+00602+0587904400600005093896200000043731550000000823742966000010694                                                                                                                                                    
0108IGOVERNANCA                   0092790092790095450095050095170094862017011200896020170102009486+00224+00010+00285+00221+00492+00844+00492+0460214902700618399999900000048124650000000811664722500009505                                                                                                                                                    
0109ISUSTENTABIL                  0024040024040024750024660024700024632017011200238720170102002463+00245-00029+00183+00093+00221+00572+00221+0248503300500003853298400000018275460000000371786558200002465                                                                                                                                                    
0110ITAG ALONG                    0132530132530136330135720135900135552017011201280420170102013555+00228+00005+00242+00203+00498+00982+00498+0465613702900817699999900000041117350000000689206793900013575                                                                                                                                                    
0111INDUSTRIAL                    0127460127460130430129830130110129992017011201247420170102012999+00199+00019+00248+00115+00351+00508+00351+0114303900600304833688900000018681070000000193096705700012991                                                                                                                                                    
0112SMALL CAP                     0011580011580011990011940011950011912017011200110720170102001191+00289+00029+00367+00275+00718+01096+00718+0541105400600206237648100000016379660000000180923745100001194                                                                                                                                                    
0113MIDLARGE CAP                  0011930011930012280012220012240012212017011200114020170102001221+00237+00044+00356+00291+00594+00790+00594+0590304700700005489051000000039660270000000791466588300001223                                                                                                                                                    
0114ICONSUMO                      0028290028290029390029150029250029162017011200280620170102002916+00311-00017+00274+00143+00325+00634+00325+0254603600500204334285200000016126480000000249727005600002917                                                                                                                                                    
0115IMOBILIARIO                   0006180006180006520006490006500006492017011200058020170102000649+00522-00003+00525+00454+01266+01656+01266+0527001300000001313650500000007374060000000070601317600000649                                                                                                                                                    
0116IFINANCEIRO                   0066060066060068080067510067550067302017011200629320170102006730+00191+00015+00208+00224+00571+01256+00571+0651101100400001525000400000010711970000000256926038200006754                                                                                                                                                    
0117ICO2                          0014570014570014990014920014940014932017011200141720170102001493+00247-00000+00239+00215+00443+00815+00443+0476902400400002857023700000023092640000000470166621500001493                                                                                                                                                    
0118IGC TRADE                     0025860025860026640026510026560026482017011200247220170102002648+00239+00028+00358+00295+00607+00904+00607+0568909201300210799999900000046118880000000801049266400002652                                                                                                                                                    
0119UTILITIES                     0037890037890039600039330039470039532017011200377120170102003953+00434-00004+00450+00384+00481+00972+00481+0753101900000001916527200000005090040000000095287028400003935                                                                                                                                                    
0120I DIVIDENDOS                  0033560033560034570034390034420034392017011200322620170102003439+00247+00011+00324+00274+00580+00848+00580+0931903000200003227904900000010595110000000173056743300003441                                                                                                                                                    
0121IMAT BASICOS                  0019270019260019770019650019680019642017011200178320170102001964+00191+00152+00633+00488+00882+00539+00882+0726201000200001218740600000010186330000000155774220500001965                                                                                                                                                    
0122IBRASIL                       0023800023800024510024410024440024382017011200227620170102002438+00242+00042+00357+00289+00607+00819+00607+0586210101300211699999900000056039930000000972390333400002442                                                                                                                                                    
0123BDRX                          0039330038850039330039110039040039802017010600391620170112003916-00045-00021-00162-00029-00119-00379-00119-0068100801000012400002900000000001410000000000264897000003934                                                                                                                                                    
0124IND FDO IMOB                  0018830018830018970018920018940018922017011200187220170102001892+00047+00005+00066+00099+00147+00218+00147+0373004401701007300554400000000055754100000004375471129001890                                                                                                                                                    
0125IGC - NM                      0019730019730020290020180020200020112017011200194120170102002011+00196-00029+00152+00079+00271+00721+00271+0293009702100512470696500000027737830000000455566221600002018                                                                                                                                                    
0202LOTE PADRAO                   3M          DRN        MMMC34      010VISTA          0000000001406300000014063000000140630000001406300000014063-000150000000000000000014740000010000000000008000000000001125040000000000000000000000MOEDA CORRENTE 00000010000000000000BRMMMCBDR0001190               0000000015                                            
0202LOTE PADRAO                   ABC BRASIL  PN      N2 ABCB4       010VISTA          0000000000148500000001591000000014850000000154300000001565+006460000000156300000001566029440000000005090000000000078524090000000000000000000000MOEDA CORRENTE 00000010000000000000BRABCBACNPR41270               0000000646                                            
0202LOTE PADRAO                   ACO ALTONA  PN         EALT4       010VISTA          0000000000129900000001329000000012990000000131400000001329+002300000000103300000001315000020000000000002000000000000026280000000000000000000000MOEDA CORRENTE 00000010000000000000BREALTACNPR11290               0000000230                                            
0202LOTE PADRAO                   ADVANCED-DH ON         ADHM3       010VISTA          0000000000007300000000074000000000690000000007100000000072-001360000000007100000000072001190000000003218000000000002275450000000000000000000000MOEDA CORRENTE 00000010000000000000BRADHMACNOR91000               0000000136                                            
0202LOTE PADRAO                   AES ELPA    ON         AELP3       010VISTA          0000000000000000000000000000000000000000000000000000000000/000000000000110000000001529000000000000000000000000000000000000000000000000000000000MOEDA CORRENTE 00000010000000000000BRAELPACNOR21230               0000000000                                            
0202LOTE PADRAO                   AES TIETE E ON      N2 TIET3       010VISTA          0000000000032800000000346000000003040000000032200000000320+005610000000032000000000345000170000000000031000000000000099670000000000000000000000MOEDA CORRENTE 00000010000000000000BRTIETACNOR01060               0000000561                                            
0202LOTE PADRAO                   AES TIETE E PN      N2 TIET4       010VISTA          0000000000028300000000302000000002830000000028800000000290+006610000000028100000000302000200000000000089000000000000256350000000000000000000000MOEDA CORRENTE 00000010000000000000BRTIETACNPR71060               0000000661                                            
0202LOTE PADRAO                   AES TIETE E UNT     N2 TIET11      010VISTA          0000000000142900000001490000000014000000000145300000001475+005280000000146200000001475064750000000012168000000000176756950000000000000000000000MOEDA CORRENTE 00000010000000000000BRTIETCDAM151060               0000000528                                            
0202LOTE PADRAO                   AFLUENTE    ON         AFLU3       010VISTA          0000000000000000000000000000000000000000000000000000000000/000000000000029300000000559000000000000000000000000000000000000000000000000000000000MOEDA CORRENTE 00000010000000000000BRAFLUACNOR91210               0000000000                                            
0202LOTE PADRAO                   AFLUENTE T  ON         AFLT3       010VISTA          0000000000034400000000346000000003440000000034600000000346+000280000000034400000000375000050000000000035000000000000120990000000000000000000000MOEDA CORRENTE 00000010000000000000BRAFLTACNOR11090               0000000028                                            
0202LOTE PADRAO                   ALFA CONSORCON         BRGE3       010VISTA          0000000000000000000000000000000000000000000000000000000000/000000000000037600000000400000000000000000000000000000000000000000000000000000000000MOEDA CORRENTE 00000010000000000000BRBRGEACNOR61990               0000000000                                            
0202LOTE PADRAO                   ALFA CONSORCPNB        BRGE6       010VISTA          0000000000000000000000000000000000000000000000000000000000/000000000000030100000000900000000000000000000000000000000000000000000000000000000000MOEDA CORRENTE 00000010000000000000BRBRGEACNPB72040               0000000000                                            
0202LOTE PADRAO                   ALFA CONSORCPNC        BRGE7       010VISTA          0000000000000000000000000000000000000000000000000000000000/000000000000026200000000000000000000000000000000000000000000000000000000000000000000MOEDA CORRENTE 00000010000000000000BRBRGEACNPC52050               0000000000                                            
0202LOTE PADRAO                   ALFA CONSORCPND        BRGE8       010VISTA          0000000000000000000000000000000000000000000000000000000000/000000000000030100000000000000000000000000000000000000000000000000000000000000000000MOEDA CORRENTE 00000010000000000000BRBRGEACNPD32060               0000000000                                            
0202LOTE PADRAO                   ALFA CONSORCPNE        BRGE11      010VISTA          0000000000000000000000000000000000000000000000000000000000/000000000000039000000000800000000000000000000000000000000000000000000000000000000000MOEDA CORRENTE 00000010000000000000BRBRGEACNPE10970               0000000000                                            
0202LOTE PADRAO                   ALFA CONSORCPNF        BRGE12      010VISTA          0000000000000000000000000000000000000000000000000000000000/000000000000015100000000319000000000000000000000000000000000000000000000000000000000MOEDA CORRENTE 00000010000000000000BRBRGEACNPF80930               0000000000                                            
0202LOTE PADRAO                   ALFA FINANC ON         CRIV3       010VISTA          0000000000000000000000000000000000000000000000000000000000/000000000000035000000000370000000000000000000000000000000000000000000000000000000000MOEDA CORRENTE 00000010000000000000BRCRIVACNOR41900               0000000000                                            
0202LOTE PADRAO                   ALFA FINANC PN         CRIV4       010VISTA          0000000000039300000000393000000003900000000039100000000390-001510000000038000000000396000020000000000026000000000000101760000000000000000000000MOEDA CORRENTE 00000010000000000000BRCRIVACNPR11960               0000000151                                            
0202LOTE PADRAO                   ALFA HOLDINGON         RPAD3       010VISTA          0000000000000000000000000000000000000000000000000000000000/000000000000025000000000300000000000000000000000000000000000000000000000000000000000MOEDA CORRENTE 00000010000000000000BRRPADACNOR11950               0000000000                                            
0202LOTE PADRAO                   ALFA HOLDINGPNA        RPAD5       010VISTA          0000000000000000000000000000000000000000000000000000000000/000000000000047100000000484000000000000000000000000000000000000000000000000000000000MOEDA CORRENTE 00000010000000000000BRRPADACNPA42030               0000000000                                            
0202LOTE PADRAO                   ALFA HOLDINGPNB        RPAD6       010VISTA          0000000000000000000000000000000000000000000000000000000000/000000000000026200000000280000000000000000000000000000000000000000000000000000000000MOEDA CORRENTE 00000010000000000000BRRPADACNPB21950               0000000000                                            
0202LOTE PADRAO                   ALFA INVEST ON         BRIV3       010VISTA          0000000000000000000000000000000000000000000000000000000000/000000000000047200000000529000000000000000000000000000000000000000000000000000000000MOEDA CORRENTE 00000010000000000000BRBRIVACNOR62030               0000000000                                            
0202LOTE PADRAO                   ALFA INVEST PN         BRIV4       010VISTA          0000000000061900000000619000000006190000000061900000000619+006720000000058500000000610000010000000000001000000000000006190000000000000000000000MOEDA CORRENTE 00000010000000000000BRBRIVACNPR32030               0000000672                                            
0202LOTE PADRAO                   ALIANSCE    ON      NM ALSC3       010VISTA          0000000000159800000001598000000015510000000156700000001588+006000000000158700000001588041260000000009356000000000146590810000000000000000000000MOEDA CORRENTE 00000010000000000000BRALSCACNOR01100               0000000600                                            
0202LOTE PADRAO                   ALIPERTI    ON         APTI3       010VISTA          0000000000000000000000000000000000000000000000000000000000/000000000030000000000000000000000000000000000000000000000000000000000000000000000000MOEDA CORRENTE 00000010000000000000BRAPTIACNOR61290               0000000000                                            
0202LOTE PADRAO                   ALIPERTI    PN         APTI4       010VISTA          0000000000000000000000000000000000000000000000000000000000/000000000030000000000000000000000000000000000000000000000000000000000000000000000000MOEDA CORRENTE 00000010000000000000BRAPTIACNPR31290               0000000000                                            
0202LOTE PADRAO                   ALLIAR      ON      NM AALR3       010VISTA          0000000000148900000001513000000014800000000149800000001500+000670000000149900000001500013090000000003381000000000050648400000000000000000000000MOEDA CORRENTE 00000010000000000000BRAALRACNOR61000               0000000067                                            
0202LOTE PADRAO                   ALPARGATAS  ON      N1 ALPA3       010VISTA          0000000000092900000000931000000009290000000093000000000931+000100000000093000000000980000080000000000729000000000006779580000000000000000000000MOEDA CORRENTE 00000010000000000000BRALPAACNOR02190               0000000010                                            
0202LOTE PADRAO                   ALPARGATAS  PN      N1 ALPA4       010VISTA          0000000000102800000001046000000010200000000102900000001020+000490000000101900000001020026870000000006028000000000062009160000000000000000000000MOEDA CORRENTE 00000010000000000000BRALPAACNPR72190               0000000049                                            
0202LOTE PADRAO                   ALPHABET    DRN C      GOGL35      010VISTA          0000000001025000000010250000000102500000001025000000010250-001240000000000000000000000000020000000000033000000000003382500000000000000000000000MOEDA CORRENTE 00000010000000000000BRGOGLBDR0191000               0000000124                                            
0202LOTE PADRAO                   ALUPAR      ON      N2 ALUP3       010VISTA          0000000000000000000000000000000000000000000000000000000000/000000000000060000000000900000000000000000000000000000000000000000000000000000000000MOEDA CORRENTE 00000010000000000000BRALUPACNOR81050               0000000000                                            
0202LOTE PADRAO                   ALUPAR      PN      N2 ALUP4       010VISTA          0000000000000000000000000000000000000000000000000000000000/000000000000046000000000500000000000000000000000000000000000000000000000000000000000MOEDA CORRENTE 00000010000000000000BRALUPACNPR51050               0000000000                                            
0202LOTE PADRAO                   ALUPAR      UNT     N2 ALUP11      010VISTA          0000000000177400000001831000000017600000000180200000001805+003140000000180500000001813028230000000004100000000000073902180000000000000000000000MOEDA CORRENTE 00000010000000000000BRALUPCDAM151050               0000000314                                            
0202LOTE PADRAO                   AMAZON      DRN        AMZO34      010VISTA          0000000012784000000127840000001278400000012784000000127840+000590000000000000000000000000010000000000002000000000002556800000000000000000000000MOEDA CORRENTE 00000010000000000000BRAMZOBDR0021010               0000000059                                            
0202LOTE PADRAO                   AMAZONIA    ON         BAZA3       010VISTA          0000000000283000000002860000000028270000000285100000002856-001920000000285500000002857000090000000000011000000000000313580000000000000000000000MOEDA CORRENTE 00000010000000000000BRBAZAACNOR01700               0000000192                                            
0202LOTE PADRAO                   AMBEV S/A   ON        .ABEV3       010VISTA          0000000000166100000001702000000016550000000168700000001693+003160000000169300000001694293700000000183404000000003093396580000000000000000000000MOEDA CORRENTE 00000010000000000000BRABEVACNOR11150               0000000316                                            
0202LOTE PADRAO                   AMPLA ENERG ON         CBEE3       010VISTA          0000000000000000000000000000000000000000000000000000000000/000000000000320000000004600000000000000000000000000000000000000000000000000000000000MOEDA CORRENTE 00000010000000000000BRCBEEACNOR31520               0000000000                                            
0202LOTE PADRAO                   ANIMA       ON      NM ANIM3       010VISTA          0000000000141100000001439000000013900000000142200000001390-001410000000139000000001410006390000000001600000000000022757700000000000000000000000MOEDA CORRENTE 00000010000000000000BRANIMACNOR61030               0000000141                                            
0202LOTE PADRAO                   APPLE       DRN        AAPL34      010VISTA          0000000000000000000000000000000000000000000000000000000000/000000000000365000000004025000000000000000000000000000000000000000000000000000000000MOEDA CORRENTE 00000010000000000000BRAAPLBDR0041190               0000000000                                            
0202LOTE PADRAO                   AREZZO CO   ON      NM ARZZ3       010VISTA          0000000000273700000002829000000027360000000278800000002779+003300000000276800000002779007570000000001958000000000054593210000000000000000000000MOEDA CORRENTE 00000010000000000000BRARZZACNOR31230               0000000330                                            
0202LOTE PADRAO                   AZEVEDO     ON         AZEV3       010VISTA          0000000000000000000000000000000000000000000000000000000000/000000000000012000000000250000000000000000000000000000000000000000000000000000000000MOEDA CORRENTE 00000010000000000000BRAZEVACNOR01160               0000000000                                            
0202LOTE PADRAO                   AZEVEDO     PN         AZEV4       010VISTA          0000000000010600000000110000000001020000000010700000000102-003770000000010300000000109000060000000000013000000000000013860000000000000000000000MOEDA CORRENTE 00000010000000000000BRAZEVACNPR71160               0000000377                                            
0202LOTE PADRAO                   B2W DIGITAL ON      NM BTOW3       010VISTA          0000000000111200000001247000000011120000000117400000001186+009810000000118400000001186065000000000031148000000000365758720000000000000000000000MOEDA CORRENTE 00000010000000000000BRBTOWACNOR81080               0000000981                                            
0202LOTE PADRAO                   BAHEMA      ON         BAHI3       010VISTA          0000000000297900000002979000000029790000000297900000002979+006350000000271100000003000000010000000000001000000000000029790000000000000000000000MOEDA CORRENTE 00000010000000000000BRBAHIACNOR10690               0000000635                                            
0202LOTE PADRAO                   BANCO PAN   PN      N1 BPAN4       010VISTA          0000000000012700000000132000000001240000000012800000000125=000000000000012500000000130000780000000001928000000000002475570000000000000000000000MOEDA CORRENTE 00000010000000000000BRBPANACNPR11040               0000000000                                            
0202LOTE PADRAO                   BANESE      ON         BGIP3       010VISTA          0000000000186000000001860000000018600000000186000000001860=000000000000000000000000000000010000000000001000000000000018600000000000000000000000MOEDA CORRENTE 00000010000000000000BRBGIPACNOR11870               0000000000                                            
0202LOTE PADRAO                   BANESE      PN         BGIP4       010VISTA          0000000000147000000001599000000014700000000150800000001599+009520000000140000000001600000170000000000022000000000000331730000000000000000000000MOEDA CORRENTE 00000010000000000000BRBGIPACNPR81870               0000000952                                            
0202LOTE PADRAO                   BANESTES    ON         BEES3       010VISTA          0000000000029000000000300000000002900000000029700000000298+004560000000028700000000298000190000000000213000000000000633440000000000000000000000MOEDA CORRENTE 00000010000000000000BRBEESACNOR92900               0000000456                                            
0202LOTE PADRAO                   BANESTES    PN         BEES4       010VISTA          0000000000028000000000294000000002800000000028200000000294+005000000000029300000000294000060000000000016000000000000045070000000000000000000000MOEDA CORRENTE 00000010000000000000BRBEESACNPR62150               0000000500                                            
0202LOTE PADRAO                   BANPARA     ON         BPAR3       010VISTA          0000000000000000000000000000000000000000000000000000000000/000000000000000100000000000000000000000000000000000000000000000000000000000000000000MOEDA CORRENTE 00000010000000000000BRBPARACNOR51410               0000000000                                            
0202LOTE PADRAO                   BANRISUL    ON      N1 BRSR3       010VISTA          0000000000132100000001321000000013210000000132100000001321+009170000000132000000001370000010000000000001000000000000013210000000000000000000000MOEDA CORRENTE 00000010000000000000BRBRSRACNOR31460               0000000917                                            
0202LOTE PADRAO                   BANRISUL    PNA     N1 BRSR5       010VISTA          0000000000000000000000000000000000000000000000000000000000/000000000000124000000001300000000000000000000000000000000000000000000000000000000000MOEDA CORRENTE 00000010000000000000BRBRSRACNPA61500               0000000000                                            
0202LOTE PADRAO                   BANRISUL    PNB     N1 BRSR6       010VISTA          0000000000123100000001307000000012310000000127700000001279+004920000000127700000001279044210000000012029000000000153595200000000000000000000000MOEDA CORRENTE 00000010000000000000BRBRSRACNPB41490               0000000492                                            
0202LOTE PADRAO                   BANSANTANDERDR3        BSAN33      010VISTA          0000000000000000000000000000000000000000000000000000000000/000000000000155000000001700000000000000000000000000000000000000000000000000000000000MOEDA CORRENTE 00000010000000000000BRBSANBDR0021080               0000000000                                            
0202LOTE PADRAO                   BARDELLA    PN         BDLL4       010VISTA          0000000000000000000000000000000000000000000000000000000000/000000000000350000000003999000000000000000000000000000000000000000000000000000000000MOEDA CORRENTE 00000010000000000000BRBDLLACNPR81510               0000000000                                            
0202LOTE PADRAO                   BATTISTELLA ON         BTTL3       010VISTA          0000000000091000000000910000000009100000000091000000000910=000000000000084200000000937000010000000000010000000000000091000000000000000000000000MOEDA CORRENTE 00000010000000000000BRBTTLACNOR01070               0000000000                                            
0202LOTE PADRAO                   BATTISTELLA PN         BTTL4       010VISTA          0000000000082000000000820000000008200000000082000000000820+000730000000081500000000830000010000000000010000000000000082000000000000000000000000MOEDA CORRENTE 00000010000000000000BRBTTLACNPR71070               0000000073                                            
0202LOTE PADRAO                   BAUMER      ON         BALM3       010VISTA          0000000000000000000000000000000000000000000000000000000000/000000000000030000000000000000000000000000000000000000000000000000000000000000000000MOEDA CORRENTE 00000010000000000000BRBALMACNOR50460               0000000000                                            
0202LOTE PADRAO                   BAUMER      PN         BALM4       010VISTA          0000000000000000000000000000000000000000000000000000000000/000000000000079000000000868000000000000000000000000000000000000000000000000000000000MOEDA CORRENTE 00000010000000000000BRBALMACNPR20470               0000000000                                            
0202LOTE PADRAO                   BB ETF SP DVCI         BBSD11      010VISTA          0000000000440900000004418000000044060000000440700000004406+002700000000000000000004500000070000000000009800000000000431922000000000000000000000MOEDA CORRENTE 00000010000000000000BRBBSDCTF0001000               0000000270                                            
0202LOTE PADRAO                   BBSEGURIDADEON      NM.BBSE3       010VISTA          0000000000295000000002962000000028400000000287900000002840-001070000000283900000002844179950000000047154000000001357534780000000000000000000000MOEDA CORRENTE 00000010000000000000BRBBSEACNOR51070               0000000107                                            
0202LOTE PADRAO                   BERKSHIRE   DRN        BERK34      010VISTA          0000000005140000000051400000000514000000005140000000051400-001300000005069000000051715000010000000000001000000000000514000000000000000000000000MOEDA CORRENTE 00000010000000000000BRBERKBDR0021000               0000000130                                            
0202LOTE PADRAO                   BIC MONARK  ON         BMKS3       010VISTA          0000000002880000000028800000000288000000002880000000028800=000000000002855000000029000000020000000000000300000000000086400000000000000000000000MOEDA CORRENTE 00000010000000000000BRBMKSACNOR91580               0000000000                                            
0202LOTE PADRAO                   BIOMM       ON      MA BIOM3       010VISTA          0000000000066000000000660000000006600000000066000000000660=000000000000060000000000710000020000000000011000000000000072600000000000000000000000MOEDA CORRENTE 00000010000000000000BRBIOMACNOR21040               0000000000                                            
0202LOTE PADRAO                   BIOSEV      ON      NM BSEV3       010VISTA          0000000000076400000000773000000007550000000076400000000764+001190000000076200000000764000750000000000477000000000003645240000000000000000000000MOEDA CORRENTE 00000010000000000000BRBSEVACNOR31010               0000000119                                            
0202LOTE PADRAO                   BMFBOVESPA  ON      NM.BVMF3       010VISTA          0000000000181600000001833000000017840000000180500000001791+002630000000179000000001795343470000000221208000000003993389130000000000000000000000MOEDA CORRENTE 00000010000000000000BRBVMFACNOR31400               0000000263                                            
0202LOTE PADRAO                   BOMBRIL     PN         BOBR4       010VISTA          0000000000021200000000216000000002050000000020900000000214+004390000000021000000000214000430000000000420000000000000878770000000000000000000000MOEDA CORRENTE 00000010000000000000BRBOBRACNPR31280               0000000439                                            
0202LOTE PADRAO                   BR BROKERS  ON      NM BBRK3       010VISTA          0000000000017700000000185000000001700000000017600000000170-001160000000016900000000170007020000000008209000000000014422160000000000000000000000MOEDA CORRENTE 00000010000000000000BRBBRKACNOR41100               0000000116                                            
0202LOTE PADRAO                   BR INSURANCEON      NM BRIN3       010VISTA          0000000000202700000002027000000019910000000200000000002000-000290000000199600000002004000400000000000575000000000011502480000000000000000000000MOEDA CORRENTE 00000010000000000000BRBRINACNOR31110               0000000029                                            
0202LOTE PADRAO                   BR MALLS PARON      NM.BRML3       010VISTA          0000000000135700000001410000000013500000000138600000001390+008500000000138900000001390536720000000189371000000002623890540000000000000000000000MOEDA CORRENTE 00000010000000000000BRBRMLACNOR91090               0000000850                                            
0202LOTE PADRAO                   BR PHARMA   ON      NM BPHA3       010VISTA          0000000000045100000000550000000004500000000049700000000525+017180000000052000000000525006440000000004644000000000023068440000000000000000000000MOEDA CORRENTE 00000010000000000000BRBPHAACNOR61040               0000001718                                            
0202LOTE PADRAO                   BR PROPERT  ON      NM BRPR3       010VISTA          0000000000079300000000805000000007930000000080100000000804+003070000000079700000000804015610000000008419000000000067462710000000000000000000000MOEDA CORRENTE 00000010000000000000BRBRPRACNOR91160               0000000307                                            
0202LOTE PADRAO                   BRADESCO    ON  EJ  N1.BBDC3       010VISTA          0000000000311500000003139000000030760000000310100000003092+002380000000309200000003093118840000000022639000000000701931710000000000000000000000MOEDA CORRENTE 00000010000000000000BRBBDCACNOR16590               0000000238                                            
0202LOTE PADRAO                   BRADESCO    PN  EJ  N1.BBDC4       010VISTA          0000000000313500000003165000000031200000000313800000003132+002350000000313200000003140356180000000161490000000005067506060000000000000000000000MOEDA CORRENTE 00000010000000000000BRBBDCACNPR86590               0000000235                                            
0202LOTE PADRAO                   BRADESPAR   ON      N1 BRAP3       010VISTA          0000000000139900000001467000000013990000000144800000001459+003320000000145000000001459001430000000001245000000000018027320000000000000000000000MOEDA CORRENTE 00000010000000000000BRBRAPACNOR51300               0000000332                                            
0202LOTE PADRAO                   BRADESPAR   PN      N1.BRAP4       010VISTA          0000000000175300000001787000000017520000000177400000001779+004340000000177800000001779086240000000018114000000000321360730000000000000000000000MOEDA CORRENTE 00000010000000000000BRBRAPACNPR21300               0000000434                                            
0202LOTE PADRAO                   BRASIL      ON      NM.BBAS3       010VISTA          0000000000291200000002949000000028980000000292200000002920+002520000000292000000002922196790000000094651000000002765305050000000000000000000000MOEDA CORRENTE 00000010000000000000BRBBASACNOR32650               0000000252                                            
0202LOTE PADRAO                   BRASILAGRO  ON      NM AGRO3       010VISTA          0000000000113300000001149000000011180000000113100000001133+000890000000112300000001133002070000000000846000000000009568050000000000000000000000MOEDA CORRENTE 00000010000000000000BRAGROACNOR71060               0000000089                                            
0202LOTE PADRAO                   BRASKEM     ON      N1 BRKM3       010VISTA          0000000000314500000003200000000031450000000316200000003200+003250000000311400000003180000040000000000019000000000000600850000000000000000000000MOEDA CORRENTE 00000010000000000000BRBRKMACNOR11140               0000000325                                            
0202LOTE PADRAO                   BRASKEM     PNA     N1.BRKM5       010VISTA          0000000000364500000003699000000036250000000365300000003642+001580000000363400000003642082430000000013769000000000502977880000000000000000000000MOEDA CORRENTE 00000010000000000000BRBRKMACNPA41140               0000000158                                            
0202LOTE PADRAO                   BRASKEM     PNB     N1 BRKM6       010VISTA          0000000000000000000000000000000000000000000000000000000000/000000000000200000000004999000000000000000000000000000000000000000000000000000000000MOEDA CORRENTE 00000010000000000000BRBRKMACNPB21110               0000000000                                            
0202LOTE PADRAO                   BRB BANCO   ON         BSLI3       010VISTA          0000000000000000000000000000000000000000000000000000000000/000000000000275000000000000000000000000000000000000000000000000000000000000000000000MOEDA CORRENTE 00000010000000000000BRBSLIACNOR51580               0000000000                                            
0202LOTE PADRAO                   BRB BANCO   PN         BSLI4       010VISTA          0000000000000000000000000000000000000000000000000000000000/000000000000200600000002250000000000000000000000000000000000000000000000000000000000MOEDA CORRENTE 00000010000000000000BRBSLIACNPR21580               0000000000                                            
0202LOTE PADRAO                   BRF SA      ON      NM.BRFS3       010VISTA          0000000000465000000004739000000046290000000469600000004705+002590000000470200000004705093430000000021527000000001010828530000000000000000000000MOEDA CORRENTE 00000010000000000000BRBRFSACNOR81170               0000000259                                            
0202LOTE PADRAO                   BTG PACTUAL UNT EJ     BBTG11      010VISTA          0000000000157500000001598000000015310000000156700000001587+002380000000157300000001587033460000000029142000000000456686290000000000000000000000MOEDA CORRENTE 00000010000000000000BRBBTGUNT0071160               0000000238                                            
0202LOTE PADRAO                   BTGP BANCO  ON  EJ     BPAC3       010VISTA          0000000000000000000000000000000000000000000000000000000000/000000000000037200000000000000000000000000000000000000000000000000000000000000000000MOEDA CORRENTE 00000010000000000000BRBPACACNOR71150               0000000000                                            
0202LOTE PADRAO                   CABAMBIENTALON      MA CABB3       010VISTA          0000000000000000000000000000000000000000000000000000000000/000000000000000100000000000000000000000000000000000000000000000000000000000000000000MOEDA CORRENTE 00000010000000000000BRCABBACNOR71010               0000000000                                            
0202LOTE PADRAO                   CAIXAETFXBOVCI         XBOV11      010VISTA          0000000000638300000006390000000063830000000638600000006390+002840000000000000000000000000100000000000070300000000004489425000000000000000000000MOEDA CORRENTE 00000010000000000000BRXBOVCTF0051000               0000000284                                            
0202LOTE PADRAO                   CAMBUCI     PN         CAMB4       010VISTA          0000000000049500000000495000000004950000000049500000000495+004870000000047000000000498000010000000000006000000000000029700000000000000000000000MOEDA CORRENTE 00000010000000000000BRCAMBACNPR11180               0000000487                                            
0202LOTE PADRAO                   CAPITALPART ON      MB CPTP3B      010VISTA          0000000000000000000000000000000000000000000000000000000000/000000000000000000000009900000000000000000000000000000000000000000000000000000000000MOEDA CORRENTE 00000010000000000000BRCPTPACNOR71060               0000000000                                            
0202LOTE PADRAO                   CASAN       ON         CASN3       010VISTA          0000000000000000000000000000000000000000000000000000000000/000000000000055000000001800000000000000000000000000000000000000000000000000000000000MOEDA CORRENTE 00000010000000000000BRCASNACNOR61120               0000000000                                            
0202LOTE PADRAO                   CASAN       PN         CASN4       010VISTA          0000000000000000000000000000000000000000000000000000000000/000000000000080000000000000000000000000000000000000000000000000000000000000000000000MOEDA CORRENTE 00000010000000000000BRCASNACNPR31120               0000000000                                            
0202LOTE PADRAO                   CCR SA      ON      NM.CCRO3       010VISTA          0000000000164800000001666000000015910000000162100000001616+001950000000161600000001617370910000000102532000000001662550030000000000000000000000MOEDA CORRENTE 00000010000000000000BRCCROACNOR21300               0000000195                                            
0202LOTE PADRAO                   CCX CARVAO  ON      NM CCXC3       010VISTA          0000000000015000000000153000000001480000000015000000000151+001340000000014800000000151001110000000001199000000000001794010000000000000000000000MOEDA CORRENTE 00000010000000000000BRCCXCACNOR51020               0000000134                                            
0202LOTE PADRAO                   CEB         ON         CEBR3       010VISTA          0000000000000000000000000000000000000000000000000000000000/000000000000210000000002890000000000000000000000000000000000000000000000000000000000MOEDA CORRENTE 00000010000000000000BRCEBRACNOR51150               0000000000                                            
0202LOTE PADRAO                   CEB         PNA        CEBR5       010VISTA          0000000000000000000000000000000000000000000000000000000000/000000000000260000000002950000000000000000000000000000000000000000000000000000000000MOEDA CORRENTE 00000010000000000000BRCEBRACNPA81140               0000000000                                            
0202LOTE PADRAO                   CEB         PNB        CEBR6       010VISTA          0000000000000000000000000000000000000000000000000000000000/000000000000150000000002540000000000000000000000000000000000000000000000000000000000MOEDA CORRENTE 00000010000000000000BRCEBRACNPB61140               0000000000                                            
0202LOTE PADRAO                   CEDRO       ON      N1 CEDO3       010VISTA          0000000000000000000000000000000000000000000000000000000000/000000000000050500000000698000000000000000000000000000000000000000000000000000000000MOEDA CORRENTE 00000010000000000000BRCEDOACNOR80960               0000000000                                            
0202LOTE PADRAO                   CEDRO       PN      N1 CEDO4       010VISTA          0000000000000000000000000000000000000000000000000000000000/000000000000027800000000295000000000000000000000000000000000000000000000000000000000MOEDA CORRENTE 00000010000000000000BRCEDOACNPR51280               0000000000                                            
0202LOTE PADRAO                   CEEE-D      ON      N1 CEED3       010VISTA          0000000000000000000000000000000000000000000000000000000000/000000000000160000000002950000000000000000000000000000000000000000000000000000000000MOEDA CORRENTE 00000010000000000000BRCEEDACNOR91020               0000000000                                            
0202LOTE PADRAO                   CEEE-D      PN      N1 CEED4       010VISTA          0000000000000000000000000000000000000000000000000000000000/000000000000100000000003000000000000000000000000000000000000000000000000000000000000MOEDA CORRENTE 00000010000000000000BRCEEDACNPR61020               0000000000                                            
0202LOTE PADRAO                   CEEE-GT     ON      N1 EEEL3       010VISTA          0000000000630100000008020000000063010000000716100000008020-002790000000400100000008020000020000000000002000000000000143210000000000000000000000MOEDA CORRENTE 00000010000000000000BREEELACNOR81030               0000000279                                            
0202LOTE PADRAO                   CEEE-GT     PN      N1 EEEL4       010VISTA          0000000000630000000006300000000059390000000612000000005939-015120000000593900000006999000020000000000002000000000000122390000000000000000000000MOEDA CORRENTE 00000010000000000000BREEELACNPR51030               0000001512                                            
0202LOTE PADRAO                   CELESC      ON      N2 CLSC3       010VISTA          0000000000000000000000000000000000000000000000000000000000/000000000000000000000002200000000000000000000000000000000000000000000000000000000000MOEDA CORRENTE 00000010000000000000BRCLSCACNOR61320               0000000000                                            
0202LOTE PADRAO                   CELESC      PN      N2 CLSC4       010VISTA          0000000000164300000001664000000016430000000165800000001662+001150000000165600000001685000380000000000120000000000001989980000000000000000000000MOEDA CORRENTE 00000010000000000000BRCLSCACNPR31110               0000000115                                            
0202LOTE PADRAO                   CELGPAR     ON         GPAR3       010VISTA          0000000000000000000000000000000000000000000000000000000000/000000000000054500000000800000000000000000000000000000000000000000000000000000000000MOEDA CORRENTE 00000010000000000000BRGPARACNOR41020               0000000000                                            
0202LOTE PADRAO                   CELPA       ON         CELP3       010VISTA          0000000000019900000000204000000001970000000019900000000197-000500000000019600000000199000230000000000202000000000000401110000000000000000000000MOEDA CORRENTE 00000010000000000000BRCELPACNOR81140               0000000050                                            
0202LOTE PADRAO                   CELPA       PNA        CELP5       010VISTA          0000000000000000000000000000000000000000000000000000000000/000000000000025000000000500000000000000000000000000000000000000000000000000000000000MOEDA CORRENTE 00000010000000000000BRCELPACNPA11160               0000000000                                            
0202LOTE PADRAO                   CELPA       PNC        CELP7       010VISTA          0000000000000000000000000000000000000000000000000000000000/000000000000010200000000234000000000000000000000000000000000000000000000000000000000MOEDA CORRENTE 00000010000000000000BRCELPACNPC71160               0000000000                                            
0202LOTE PADRAO                   CELPE       PNA        CEPE5       010VISTA          0000000000180500000001805000000018000000000180100000001800-002700000000177000000001900000060000000000009000000000000162060000000000000000000000MOEDA CORRENTE 00000010000000000000BRCEPEACNPA61550               0000000270                                            
0202LOTE PADRAO                   CELPE       PNB        CEPE6       010VISTA          0000000000000000000000000000000000000000000000000000000000/000000000000000000000002400000000000000000000000000000000000000000000000000000000000MOEDA CORRENTE 00000010000000000000BRCEPEACNPB41550               0000000000                                            
0202LOTE PADRAO                   CELUL IRANI ON         RANI3       010VISTA          0000000000028500000000285000000002800000000028400000000280=000000000000028000000000285000050000000000023000000000000065310000000000000000000000MOEDA CORRENTE 00000010000000000000BRRANIACNOR50490               0000000000                                            
0202LOTE PADRAO                   CELUL IRANI PN         RANI4       010VISTA          0000000000000000000000000000000000000000000000000000000000/000000000000028000000000299000000000000000000000000000000000000000000000000000000000MOEDA CORRENTE 00000010000000000000BRRANIACNPR20500               0000000000                                            
0202LOTE PADRAO                   CEMAR       ON      MB ENMA3B      010VISTA          0000000000000000000000000000000000000000000000000000000000/000000000000190000000002474000000000000000000000000000000000000000000000000000000000MOEDA CORRENTE 00000010000000000000BRENMAACNOR51140               0000000000                                            
0202LOTE PADRAO                   CEMEPE      ON         MAPT3       010VISTA          0000000000000000000000000000000000000000000000000000000000/000000000000000000000000700000000000000000000000000000000000000000000000000000000000MOEDA CORRENTE 00000010000000000000BRMAPTACNOR81060               0000000000                                            
0202LOTE PADRAO                   CEMEPE      PN         MAPT4       010VISTA          0000000000000000000000000000000000000000000000000000000000/000000000000000000000000300000000000000000000000000000000000000000000000000000000000MOEDA CORRENTE 00000010000000000000BRMAPTACNPR51060               0000000000                                            
0202LOTE PADRAO                   CEMIG       ON      N1 CMIG3       010VISTA          0000000000082100000000900000000008210000000086200000000900+011110000000089400000000900002260000000001048000000000009029980000000000000000000000MOEDA CORRENTE 00000010000000000000BRCMIGACNOR62180               0000001111                                            
0202LOTE PADRAO                   CEMIG       PN      N1.CMIG4       010VISTA          0000000000080100000000868000000007990000000083100000000864+012060000000086100000000864290980000000183011000000001520518050000000000000000000000MOEDA CORRENTE 00000010000000000000BRCMIGACNPR32180               0000001206                                            
0202LOTE PADRAO                   CESP        ON      N1 CESP3       010VISTA          0000000000122900000001285000000012200000000123600000001230+000400000000122500000001250000130000000000128000000000001582300000000000000000000000MOEDA CORRENTE 00000010000000000000BRCESPACNOR31650               0000000040                                            
0202LOTE PADRAO                   CESP        PNA     N1 CESP5       010VISTA          0000000000000000000000000000000000000000000000000000000000/000000000000190000000002090000000000000000000000000000000000000000000000000000000000MOEDA CORRENTE 00000010000000000000BRCESPACNPA61130               0000000000                                            
0202LOTE PADRAO                   CESP        PNB     N1 CESP6       010VISTA          0000000000139300000001414000000013770000000139200000001393+002050000000139300000001395047030000000032309000000000449737390000000000000000000000MOEDA CORRENTE 00000010000000000000BRCESPACNPB41240               0000000205                                            
0202LOTE PADRAO                   CETIP       ON      NM.CTIP3       010VISTA          0000000000469400000004754000000046090000000463600000004644+000750000000464000000004644064280000000023200000000001075604590000000000000000000000MOEDA CORRENTE 00000010000000000000BRCTIPACNOR21450               0000000075                                            
0202LOTE PADRAO                   CIA HERING  ON      NM HGTX3       010VISTA          0000000000164200000001695000000016410000000166800000001663+003290000000166100000001663017890000000003481000000000058065650000000000000000000000MOEDA CORRENTE 00000010000000000000BRHGTXACNOR91360               0000000329                                            
0202LOTE PADRAO                   CIELO       ON  EJ  NM.CIEL3       010VISTA          0000000000267000000002713000000025770000000264300000002577-001560000000257700000002580314680000000084498000000002233407770000000000000000000000MOEDA CORRENTE 00000010000000000000BRCIELACNOR31220               0000000156                                            
0202LOTE PADRAO                   CITIGROUP   DRN        CTGP34      010VISTA          0000000001876100000018761000000187610000001876100000018761-000360000000000000000000000000010000000000004000000000000750440000000000000000000000MOEDA CORRENTE 00000010000000000000BRCTGPBDR0001240               0000000036                                            
0202LOTE PADRAO                   COCA COLA   DRN        COCA34      010VISTA          0000000001301900000013019000000130190000001301900000013019+000160000001280000000000000000010000000000005000000000000650950000000000000000000000MOEDA CORRENTE 00000010000000000000BRCOCABDR0021210               0000000016                                            
0202LOTE PADRAO                   COELBA      ON         CEEB3       010VISTA          0000000000000000000000000000000000000000000000000000000000/000000000000190100000002390000000000000000000000000000000000000000000000000000000000MOEDA CORRENTE 00000010000000000000BRCEEBACNOR31690               0000000000                                            
0202LOTE PADRAO                   COELBA      PNA        CEEB5       010VISTA          0000000000000000000000000000000000000000000000000000000000/000000000000190100000000000000000000000000000000000000000000000000000000000000000000MOEDA CORRENTE 00000010000000000000BRCEEBACNPA61630               0000000000                                            
0202LOTE PADRAO                   COELCE      ON         COCE3       010VISTA          0000000000000000000000000000000000000000000000000000000000/000000000000370000000004569000000000000000000000000000000000000000000000000000000000MOEDA CORRENTE 00000010000000000000BRCOCEACNOR01350               0000000000                                            
0202LOTE PADRAO                   COELCE      PNA        COCE5       010VISTA          0000000000476700000004824000000047670000000479900000004800+000690000000478900000004800000440000000000143000000000006862580000000000000000000000MOEDA CORRENTE 00000010000000000000BRCOCEACNPA31360               0000000069                                            
0202LOTE PADRAO                   COMCAST     DRN        CMCS34      010VISTA          0000000000000000000000000000000000000000000000000000000000/000000000002055700000000000000000000000000000000000000000000000000000000000000000000MOEDA CORRENTE 00000010000000000000BRCMCSBDR0081200               0000000000                                            
0202LOTE PADRAO                   COMGAS      ON         CGAS3       010VISTA          0000000000425100000004375000000042170000000434300000004217-003030000000420500000004218000110000000000016000000000000694920000000000000000000000MOEDA CORRENTE 00000010000000000000BRCGASACNOR01400               0000000303                                            
0202LOTE PADRAO                   COMGAS      PNA        CGAS5       010VISTA          0000000000466200000004750000000046340000000469600000004750+003190000000471900000004750003450000000000739000000000034700180000000000000000000000MOEDA CORRENTE 00000010000000000000BRCGASACNPA31370               0000000319                                            
0202LOTE PADRAO                   CONST A LINDON         CALI3       010VISTA          0000000000000000000000000000000000000000000000000000000000/000000000001000000000000000000000000000000000000000000000000000000000000000000000000MOEDA CORRENTE 00000010000000000000BRCALIACNOR11300               0000000000                                            
0202LOTE PADRAO                   CONST A LINDPN         CALI4       010VISTA          0000000000000000000000000000000000000000000000000000000000/000000000000500000000025800000000000000000000000000000000000000000000000000000000000MOEDA CORRENTE 00000010000000000000BRCALIACNPR81340               0000000000                                            
0202LOTE PADRAO                   CONTAX      ON      NM CTAX3       010VISTA          0000000000099400000000994000000009530000000097300000000988+001850000000096100000000989000520000000000110000000000001070730000000000000000000000MOEDA CORRENTE 00000010000000000000BRCTAXACNOR31180               0000000185                                            
0202LOTE PADRAO                   COPASA      ON      NM CSMG3       010VISTA          0000000000379900000004022000000037680000000391900000003980+005730000000395900000003980033450000000008824000000000345831290000000000000000000000MOEDA CORRENTE 00000010000000000000BRCSMGACNOR51400               0000000573                                            
0202LOTE PADRAO                   COPEL       ON      N1 CPLE3       010VISTA          0000000000208600000002179000000020860000000214500000002149+004520000000214100000002149001030000000000308000000000006606370000000000000000000000MOEDA CORRENTE 00000010000000000000BRCPLEACNOR81330               0000000452                                            
0202LOTE PADRAO                   COPEL       PNB     N1.CPLE6       010VISTA          0000000000305000000003242000000030500000000316100000003145+004720000000314500000003156070800000000012135000000000383571870000000000000000000000MOEDA CORRENTE 00000010000000000000BRCPLEACNPB91300               0000000472                                            
0202LOTE PADRAO                   COPHILLIPS  DRN        COPH34      010VISTA          0000000000399900000003999000000039990000000399900000003999+000100000000399900000000000000010000000000001000000000000039990000000000000000000000MOEDA CORRENTE 00000010000000000000BRCOPHBDR0091200               0000000010                                            
0202LOTE PADRAO                   COR RIBEIRO PN         CORR4       010VISTA          0000000000000000000000000000000000000000000000000000000000/000000000000250000000000000000000000000000000000000000000000000000000000000000000000MOEDA CORRENTE 00000010000000000000BRCORRACNPR70180               0000000000                                            
0202LOTE PADRAO                   COSAN       ON      NM.CSAN3       010VISTA          0000000000388000000003923000000038100000000385700000003854+001520000000384500000003855054760000000008489000000000327406030000000000000000000000MOEDA CORRENTE 00000010000000000000BRCSANACNOR61160               0000000152                                            
0202LOTE PADRAO                   COSAN LOG   ON      NM RLOG3       010VISTA          0000000000054700000000570000000005410000000055900000000562+003690000000056200000000566006750000000003474000000000019436750000000000000000000000MOEDA CORRENTE 00000010000000000000BRRLOGACNOR41040               0000000369                                            
0202LOTE PADRAO                   COSAN LTD   DR3        CZLT33      010VISTA          0000000000267700000002677000000024800000000249200000002485+000240000000248100000002490013150000000002166000000000053985690000000000000000000000MOEDA CORRENTE 00000010000000000000BRCZLTBDR0091090               0000000024                                            
0202LOTE PADRAO                   COSERN      ON         CSRN3       010VISTA          0000000000148000000001488000000014800000000148400000001488+001220000000145000000001609000020000000000002000000000000029680000000000000000000000MOEDA CORRENTE 00000010000000000000BRCSRNACNOR01610               0000000122                                            
0202LOTE PADRAO                   COSERN      PNA        CSRN5       010VISTA          0000000000000000000000000000000000000000000000000000000000/000000000000140000000000000000000000000000000000000000000000000000000000000000000000MOEDA CORRENTE 00000010000000000000BRCSRNACNPA31610               0000000000                                            
0202LOTE PADRAO                   COSERN      PNB        CSRN6       010VISTA          0000000000000000000000000000000000000000000000000000000000/000000000000140000000001595000000000000000000000000000000000000000000000000000000000MOEDA CORRENTE 00000010000000000000BRCSRNACNPB11620               0000000000                                            
0202LOTE PADRAO                   COSTCO      DRN        COWC34      010VISTA          0000000000000000000000000000000000000000000000000000000000/000000000001204700000000000000000000000000000000000000000000000000000000000000000000MOEDA CORRENTE 00000010000000000000BRCOWCBDR0061030               0000000000                                            
0202LOTE PADRAO                   COTEMINAS   ON         CTNM3       010VISTA          0000000000035000000000350000000003500000000035000000000350+006060000000033100000000369000010000000000004000000000000014000000000000000000000000MOEDA CORRENTE 00000010000000000000BRCTNMACNOR91300               0000000606                                            
0202LOTE PADRAO                   COTEMINAS   PN         CTNM4       010VISTA          0000000000036400000000410000000003600000000038600000000390+012710000000037000000000390000260000000000117000000000000451600000000000000000000000MOEDA CORRENTE 00000010000000000000BRCTNMACNPR61290               0000001271                                            
0202LOTE PADRAO                   CPFL ENERGIAON      NM.CPFE3       010VISTA          0000000000253400000002538000000025210000000252900000002532+000270000000253200000002533063440000000019382000000000490189220000000000000000000000MOEDA CORRENTE 00000010000000000000BRCPFEACNOR01260               0000000027                                            
0202LOTE PADRAO                   CPFL RENOVAVON      NM CPRE3       010VISTA          0000000000116800000001168000000011450000000115000000001151-000770000000115000000001160000120000000000104000000000001196000000000000000000000000MOEDA CORRENTE 00000010000000000000BRCPREACNOR51000               0000000077                                            
0202LOTE PADRAO                   CR2         ON      NM CRDE3       010VISTA          0000000000013500000000135000000001300000000013200000000135+002270000000013200000000137000140000000000122000000000000161180000000000000000000000MOEDA CORRENTE 00000010000000000000BRCRDEACNOR11090               0000000227                                            
0202LOTE PADRAO                   CREMER      ON  EJ     CREM3       010VISTA          0000000000085500000000855000000008550000000085500000000855-005520000000086000000000909000010000000000001000000000000008550000000000000000000000MOEDA CORRENTE 00000010000000000000BRCREMACNOR21750               0000000552                                            
0202LOTE PADRAO                   CRISTAL     PNA        CRPG5       010VISTA          0000000000055100000000576000000005510000000056600000000560=000000000000055500000000570000180000000000067000000000000379540000000000000000000000MOEDA CORRENTE 00000010000000000000BRCRPGACNPA31000               0000000000                                            
0202LOTE PADRAO                   CRISTAL     PNB        CRPG6       010VISTA          0000000000000000000000000000000000000000000000000000000000/000000000000055000000000570000000000000000000000000000000000000000000000000000000000MOEDA CORRENTE 00000010000000000000BRCRPGACNPB11000               0000000000                                            
0202LOTE PADRAO                   CSU CARDSYSTON      NM CARD3       010VISTA          0000000000055800000000561000000005530000000055800000000558+002570000000055700000000558007110000000003226000000000017991780000000000000000000000MOEDA CORRENTE 00000010000000000000BRCARDACNOR91090               0000000257                                            
0202LOTE PADRAO                   CVC BRASIL  ON      NM CVCB3       010VISTA          0000000000260000000002637000000024950000000255200000002539+000550000000253600000002539059890000000013092000000000334136090000000000000000000000MOEDA CORRENTE 00000010000000000000BRCVCBACNOR11060               0000000055                                            
0202LOTE PADRAO                   CYRE COM-CCPON      NM CCPR3       010VISTA          0000000000100000000001000000000010000000000100000000001000+005150000000096000000001020000010000000000001000000000000010000000000000000000000000MOEDA CORRENTE 00000010000000000000BRCCPRACNOR91110               0000000515                                            
0202LOTE PADRAO                   CYRELA REALTON      NM.CYRE3       010VISTA          0000000000120000000001243000000012000000000121900000001205+002990000000120500000001217162760000000076803000000000936006550000000000000000000000MOEDA CORRENTE 00000010000000000000BRCYREACNOR71280               0000000299                                            
0202LOTE PADRAO                   DASA        ON         DASA3       010VISTA          0000000000177000000001771000000017700000000177100000001771+000280000000175100000001900000020000000000006000000000000106250000000000000000000000MOEDA CORRENTE 00000010000000000000BRDASAACNOR11120               0000000028                                            
0202LOTE PADRAO                   DIMED       ON         PNVL3       010VISTA          0000000006150000000061500000000600000000006023200000060000-001640000005900000000060000000120000000000013000000000007830120000000000000000000000MOEDA CORRENTE 00000010000000000000BRPNVLACNOR91880               0000000164                                            
0202LOTE PADRAO                   DIMED       PN         PNVL4       010VISTA          0000000002395000000024000000000239500000002397500000024000+000200000000000000000024100000020000000000002000000000000479500000000000000000000000MOEDA CORRENTE 00000010000000000000BRPNVLACNPR61880               0000000020                                            
0202LOTE PADRAO                   DIRECIONAL  ON      NM DIRR3       010VISTA          0000000000049000000000507000000004900000000050000000000494+002700000000049400000000496017980000000004918000000000024579600000000000000000000000MOEDA CORRENTE 00000010000000000000BRDIRRACNOR01090               0000000270                                            
0202LOTE PADRAO                   DOHLER      ON         DOHL3       010VISTA          0000000000000000000000000000000000000000000000000000000000/000000000000050000000000850000000000000000000000000000000000000000000000000000000000MOEDA CORRENTE 00000010000000000000BRDOHLACNOR20550               0000000000                                            
0202LOTE PADRAO                   DOHLER      PN         DOHL4       010VISTA          0000000000043200000000432000000004320000000043200000000432=000000000000039500000000432000010000000000004000000000000017280000000000000000000000MOEDA CORRENTE 00000010000000000000BRDOHLACNPR90580               0000000000                                            
0202LOTE PADRAO                   DTCOM-DIRECTON         DTCY3       010VISTA          0000000000035000000000400000000003500000000038300000000400+011110000000038000000000400000040000000000004000000000000015300000000000000000000000MOEDA CORRENTE 00000010000000000000BRDTCYACNOR51080               0000001111                                            
0202LOTE PADRAO                   DUFRY AG    DR3        DAGB33      010VISTA          0000000004160500000042573000000416050000004218700000042000+000710000004200000000042023004510000000000084020000000035445536500000000000000000000MOEDA CORRENTE 00000010000000000000BRDAGBBDR0081020               0000000071                                            
0202LOTE PADRAO                   DURATEX     ON      NM DTEX3       010VISTA          0000000000073900000000757000000007270000000074400000000752+005170000000075100000000752064500000000022222000000000165285850000000000000000000000MOEDA CORRENTE 00000010000000000000BRDTEXACNOR31240               0000000517                                            
0202LOTE PADRAO                   ECORODOVIAS ON      NM.ECOR3       010VISTA          0000000000086200000000899000000008620000000088100000000883+005870000000088300000000890240240000000065759000000000579028930000000000000000000000MOEDA CORRENTE 00000010000000000000BRECORACNOR81120               0000000587                                            
0202LOTE PADRAO                   ELEKEIROZ   ON         ELEK3       010VISTA          0000000000000000000000000000000000000000000000000000000000/000000000000037000000000429000000000000000000000000000000000000000000000000000000000MOEDA CORRENTE 00000010000000000000BRELEKACNOR51190               0000000000                                            
0202LOTE PADRAO                   ELEKEIROZ   PN         ELEK4       010VISTA          0000000000000000000000000000000000000000000000000000000000/000000000000042500000000473000000000000000000000000000000000000000000000000000000000MOEDA CORRENTE 00000010000000000000BRELEKACNPR21200               0000000000                                            
0202LOTE PADRAO                   ELEKTRO     ON         EKTR3       010VISTA          0000000000000000000000000000000000000000000000000000000000/000000000000140000000002495000000000000000000000000000000000000000000000000000000000MOEDA CORRENTE 00000010000000000000BREKTRACNOR01390               0000000000                                            
0202LOTE PADRAO                   ELEKTRO     PN         EKTR4       010VISTA          0000000000000000000000000000000000000000000000000000000000/000000000000186100000002050000000000000000000000000000000000000000000000000000000000MOEDA CORRENTE 00000010000000000000BREKTRACNPR71390               0000000000                                            
0202LOTE PADRAO                   ELETROBRAS  ON      N1.ELET3       010VISTA          0000000000225000000002333000000022080000000229400000002320+007750000000232000000002322156970000000030392000000000697128990000000000000000000000MOEDA CORRENTE 00000010000000000000BRELETACNOR61520               0000000775                                            
0202LOTE PADRAO                   ELETROBRAS  PNA     N1 ELET5       010VISTA          0000000000000000000000000000000000000000000000000000000000/000000000000215000000000000000000000000000000000000000000000000000000000000000000000MOEDA CORRENTE 00000010000000000000BRELETACNPA90680               0000000000                                            
0202LOTE PADRAO                   ELETROBRAS  PNB     N1 ELET6       010VISTA          0000000000251000000002636000000025020000000260900000002608+005620000000260700000002608075890000000016056000000000418862940000000000000000000000MOEDA CORRENTE 00000010000000000000BRELETACNPB70680               0000000562                                            
0202LOTE PADRAO                   ELETROPAR   ON         LIPR3       010VISTA          0000000000000000000000000000000000000000000000000000000000/000000000000000000000006000000000000000000000000000000000000000000000000000000000000MOEDA CORRENTE 00000010000000000000BRLIPRACNOR71130               0000000000                                            
0202LOTE PADRAO                   ELETROPAULO ON      N2 ELPL3       010VISTA          0000000000000000000000000000000000000000000000000000000000/000000000000163200000003000000000000000000000000000000000000000000000000000000000000MOEDA CORRENTE 00000010000000000000BRELPLACNOR91290               0000000000                                            
0202LOTE PADRAO                   ELETROPAULO PN      N2 ELPL4       010VISTA          0000000000115300000001230000000011530000000119500000001203+004970000000120300000001209055320000000032729000000000391134630000000000000000000000MOEDA CORRENTE 00000010000000000000BRELPLACNPR61200               0000000497                                            
0202LOTE PADRAO                   EMAE        PN         EMAE4       010VISTA          0000000000088000000000884000000008800000000088000000000884+000560000000088000000000884000070000000000102000000000000897680000000000000000000000MOEDA CORRENTE 00000010000000000000BREMAEACNPR11080               0000000056                                            
0202LOTE PADRAO                   EMBRAER     ON      NM.EMBR3       010VISTA          0000000000167200000001685000000016410000000165400000001649-001550000000164900000001651119120000000030424000000000503203970000000000000000000000MOEDA CORRENTE 00000010000000000000BREMBRACNOR41790               0000000155                                            
0202LOTE PADRAO                   ENCORPAR    ON         ECPR3       010VISTA          0000000000000000000000000000000000000000000000000000000000/000000000000250000000005000000000000000000000000000000000000000000000000000000000000MOEDA CORRENTE 00000010000000000000BRECPRACNOR51090               0000000000                                            
0202LOTE PADRAO                   ENCORPAR    PN         ECPR4       010VISTA          0000000000000000000000000000000000000000000000000000000000/000000000000100000000003900000000000000000000000000000000000000000000000000000000000MOEDA CORRENTE 00000010000000000000BRECPRACNPR21090               0000000000                                            
0202LOTE PADRAO                   ENERGIAS BR ON      NM.ENBR3       010VISTA          0000000000134000000001373000000013360000000136100000001353+002340000000135300000001357097310000000016868000000000229611500000000000000000000000MOEDA CORRENTE 00000010000000000000BRENBRACNOR21230               0000000234                                            
0202LOTE PADRAO                   ENERGISA    ON      N2 ENGI3       010VISTA          0000000000045900000000459000000004590000000045900000000459+003610000000045900000000475000030000000000004000000000000018360000000000000000000000MOEDA CORRENTE 00000010000000000000BRENGIACNOR01280               0000000361                                            
0202LOTE PADRAO                   ENERGISA    PN      N2 ENGI4       010VISTA          0000000000038000000000381000000003800000000038000000000380=000000000000036000000000380000040000000000007000000000000026630000000000000000000000MOEDA CORRENTE 00000010000000000000BRENGIACNPR71240               0000000000                                            
0202LOTE PADRAO                   ENERGISA    UNT     N2 ENGI11      010VISTA          0000000000199900000002025000000019460000000197200000001970+002070000000196700000001970027700000000008724000000000172010720000000000000000000000MOEDA CORRENTE 00000010000000000000BRENGICDAM161180               0000000207                                            
0202LOTE PADRAO                   ENERGISA MT ON         ENMT3       010VISTA          0000000000000000000000000000000000000000000000000000000000/000000000000060000000001400000000000000000000000000000000000000000000000000000000000MOEDA CORRENTE 00000010000000000000BRENMTACNOR51050               0000000000                                            
0202LOTE PADRAO                   ENERGISA MT PN         ENMT4       010VISTA          0000000000000000000000000000000000000000000000000000000000/000000000000082600000001826000000000000000000000000000000000000000000000000000000000MOEDA CORRENTE 00000010000000000000BRENMTACNPR21050               0000000000                                            
0202LOTE PADRAO                   ENEVA       ON      NM ENEV3       010VISTA          0000000000120000000001200000000011820000000118600000001186-001080000000118700000001199000060000000000083000000000000984640000000000000000000000MOEDA CORRENTE 00000010000000000000BRENEVACNOR81040               0000000108                                            
0202LOTE PADRAO                   ENGIE BRASILON      NM.EGIE3       010VISTA          0000000000359900000003652000000035240000000357600000003530+001430000000352000000003537099900000000015976000000000571280190000000000000000000000MOEDA CORRENTE 00000010000000000000BREGIEACNOR91020               0000000143                                            
0202LOTE PADRAO                   EQUATORIAL  ON      NM.EQTL3       010VISTA          0000000000550000000005605000000054140000000550800000005467+002720000000546500000005489092690000000023600000000001299930050000000000000000000000MOEDA CORRENTE 00000010000000000000BREQTLACNOR01200               0000000272                                            
0202LOTE PADRAO                   ESTACIO PARTON      NM.ESTC3       010VISTA          0000000000159700000001671000000015750000000164600000001610+003530000000161000000001615120610000000048682000000000801509970000000000000000000000MOEDA CORRENTE 00000010000000000000BRESTCACNOR51130               0000000353                                            
0202LOTE PADRAO                   ESTRELA     ON         ESTR3       010VISTA          0000000000000000000000000000000000000000000000000000000000/000000000000010000000000200000000000000000000000000000000000000000000000000000000000MOEDA CORRENTE 00000010000000000000BRESTRACNOR31420               0000000000                                            
0202LOTE PADRAO                   ESTRELA     PN         ESTR4       010VISTA          0000000000006100000000061000000000610000000006100000000061=000000000000006100000000063000080000000000104000000000000063440000000000000000000000MOEDA CORRENTE 00000010000000000000BRESTRACNPR01420               0000000000                                            
0202LOTE PADRAO                   ETERNIT     ON      NM ETER3       010VISTA          0000000000014300000000147000000001410000000014400000000142+000700000000014200000000143004720000000010178000000000014650370000000000000000000000MOEDA CORRENTE 00000010000000000000BRETERACNOR32300               0000000070                                            
0202LOTE PADRAO                   EUCATEX     PN      N1 EUCA4       010VISTA          0000000000029000000000303000000002890000000029300000000303+004840000000030300000000309000770000000001272000000000003732680000000000000000000000MOEDA CORRENTE 00000010000000000000BREUCAACNPR80350               0000000484                                            
0202LOTE PADRAO                   EVEN        ON      NM EVEN3       010VISTA          0000000000041700000000423000000004090000000041400000000409+001740000000040800000000409027550000000030803000000000127492720000000000000000000000MOEDA CORRENTE 00000010000000000000BREVENACNOR81110               0000000174                                            
0202LOTE PADRAO                   EXCELSIOR   PN         BAUH4       010VISTA          0000000000090000000000979000000009000000000094000000000979+005600000000090000000000974000020000000000002000000000000018790000000000000000000000MOEDA CORRENTE 00000010000000000000BRBAUHACNPR31110               0000000560                                            
0202LOTE PADRAO                   EXXON MOBIL DRN        EXXO34      010VISTA          0000000000685600000006856000000068560000000685600000006856-000660000000685600000000000000010000000000001000000000000068560000000000000000000000MOEDA CORRENTE 00000010000000000000BREXXOBDR0061250               0000000066                                            
0202LOTE PADRAO                   EZTEC       ON      NM EZTC3       010VISTA          0000000000185100000001910000000018500000000189500000001881+003350000000188100000001884041950000000008550000000000162010660000000000000000000000MOEDA CORRENTE 00000010000000000000BREZTCACNOR01090               0000000335                                            
0202LOTE PADRAO                   FER HERINGERON      NM FHER3       010VISTA          0000000000022500000000225000000002160000000022100000000217-001360000000021700000000220002320000000001746000000000003857520000000000000000000000MOEDA CORRENTE 00000010000000000000BRFHERACNOR51030               0000000136                                            
0202LOTE PADRAO                   FERBASA     ON      N1 FESA3       010VISTA          0000000000097600000001020000000009750000000098000000000978+000300000000097500000000978000260000000000119000000000001165840000000000000000000000MOEDA CORRENTE 00000010000000000000BRFESAACNOR81560               0000000030                                            
0202LOTE PADRAO                   FERBASA     PN      N1 FESA4       010VISTA          0000000000081100000000817000000008080000000081300000000817+000730000000081000000000817005880000000001578000000000012834130000000000000000000000MOEDA CORRENTE 00000010000000000000BRFESAACNPR50520               0000000073                                            
0202LOTE PADRAO                   FIBRIA      ON      NM.FIBR3       010VISTA          0000000000317100000003174000000030750000000311500000003130-001260000000313000000003145107650000000027760000000000864762790000000000000000000000MOEDA CORRENTE 00000010000000000000BRFIBRACNOR91050               0000000126                                            
0202LOTE PADRAO                   FLEURY      ON      NM FLRY3       010VISTA          0000000000362300000003689000000035750000000362600000003575-000580000000357500000003625041420000000007689000000000278821890000000000000000000000MOEDA CORRENTE 00000010000000000000BRFLRYACNOR51160               0000000058                                            
0202LOTE PADRAO                   FORJA TAURUSON      N2 FJTA3       010VISTA          0000000000016300000000163000000001610000000016200000000161=000000000000016100000000170000070000000000047000000000000075950000000000000000000000MOEDA CORRENTE 00000010000000000000BRFJTAACNOR51550               0000000000                                            
0202LOTE PADRAO                   FORJA TAURUSPN      N2 FJTA4       010VISTA          0000000000018000000000185000000001800000000018200000000182+002240000000018200000000184000320000000000593000000000001077090000000000000000000000MOEDA CORRENTE 00000010000000000000BRFJTAACNPR21560               0000000224                                            
0202LOTE PADRAO                   FRAS-LE     ON      N1 FRAS3       010VISTA          0000000000044000000000449000000004400000000044400000000440+000910000000043900000000440000690000000000275000000000001220160000000000000000000000MOEDA CORRENTE 00000010000000000000BRFRASACNOR01410               0000000091                                            
0202LOTE PADRAO                   GAFISA      ON      NM GFSA3       010VISTA          0000000000022500000000230000000002190000000022600000000228+007540000000022800000000229047340000000142440000000000321523760000000000000000000000MOEDA CORRENTE 00000010000000000000BRGFSAACNOR31110               0000000754                                            
0202LOTE PADRAO                   GENERALSHOPPON      NM GSHP3       010VISTA          0000000000045000000000450000000004320000000044000000000448+007950000000042100000000448000090000000000073000000000000321500000000000000000000000MOEDA CORRENTE 00000010000000000000BRGSHPACNOR71000               0000000795                                            
0202LOTE PADRAO                   GER PARANAP ON         GEPA3       010VISTA          0000000000000000000000000000000000000000000000000000000000/000000000000325000000003500000000000000000000000000000000000000000000000000000000000MOEDA CORRENTE 00000010000000000000BRGEPAACNOR21360               0000000000                                            
0202LOTE PADRAO                   GER PARANAP PN         GEPA4       010VISTA          0000000000340000000003400000000034000000000340000000003400=000000000000310000000003600000010000000000001000000000000034000000000000000000000000MOEDA CORRENTE 00000010000000000000BRGEPAACNPR91430               0000000000                                            
0202LOTE PADRAO                   GERDAU      ON      N1 GGBR3       010VISTA          0000000000088800000000910000000008880000000090300000000905+002370000000089100000000905004810000000001689000000000015243360000000000000000000000MOEDA CORRENTE 00000010000000000000BRGGBRACNOR11620               0000000237                                            
0202LOTE PADRAO                   GERDAU      PN      N1.GGBR4       010VISTA          0000000000130000000001307000000012670000000128700000001280+001580000000128000000001281261680000000112750000000001450841320000000000000000000000MOEDA CORRENTE 00000010000000000000BRGGBRACNPR81620               0000000158                                            
0202LOTE PADRAO                   GERDAU MET  ON      N1 GOAU3       010VISTA          0000000000046700000000480000000004550000000046600000000457-000650000000045700000000459003390000000003288000000000015326110000000000000000000000MOEDA CORRENTE 00000010000000000000BRGOAUACNOR12410               0000000065                                            
0202LOTE PADRAO                   GERDAU MET  PN      N1.GOAU4       010VISTA          0000000000057100000000580000000005570000000056700000000558+000540000000055800000000559160430000000170769000000000967892860000000000000000000000MOEDA CORRENTE 00000010000000000000BRGOAUACNPR82420               0000000054                                            
0202LOTE PADRAO                   GOL         PN      N2 GOLL4       010VISTA          0000000000056000000000579000000005570000000056800000000573+007700000000057300000000574076670000000050872000000000289191250000000000000000000000MOEDA CORRENTE 00000010000000000000BRGOLLACNPR41230               0000000770                                            
0202LOTE PADRAO                   GP INVEST   DR3        GPIV33      010VISTA          0000000000071000000000719000000007050000000070900000000705-000420000000070500000000714000560000000000964000000000006830590000000000000000000000MOEDA CORRENTE 00000010000000000000BRGPIVBDR0031040               0000000042                                            
0202LOTE PADRAO                   GRAZZIOTIN  ON         CGRA3       010VISTA          0000000000180000000001800000000017210000000176700000001800+005260000000175000000001800000110000000000055000000000000971970000000000000000000000MOEDA CORRENTE 00000010000000000000BRCGRAACNOR20670               0000000526                                            
0202LOTE PADRAO                   GRAZZIOTIN  PN         CGRA4       010VISTA          0000000000174500000001758000000017400000000174700000001740-000280000000174000000001760000240000000000064000000000001118070000000000000000000000MOEDA CORRENTE 00000010000000000000BRCGRAACNPR90670               0000000028                                            
0202LOTE PADRAO                   GRENDENE    ON      NM GRND3       010VISTA          0000000000177500000001810000000017680000000178900000001768+000280000000176800000001781020720000000004131000000000073888970000000000000000000000MOEDA CORRENTE 00000010000000000000BRGRNDACNOR31440               0000000028                                            
0202LOTE PADRAO                   GUARARAPES  ON         GUAR3       010VISTA          0000000000628000000006740000000062580000000664300000006740+009930000000646500000006740001070000000000438000000000029096660000000000000000000000MOEDA CORRENTE 00000010000000000000BRGUARACNOR41510               0000000993                                            
0202LOTE PADRAO                   GUARARAPES  PN         GUAR4       010VISTA          0000000000580000000005944000000058000000000588600000005943+003690000000590000000005944001100000000000233000000000013713590000000000000000000000MOEDA CORRENTE 00000010000000000000BRGUARACNPR11510               0000000369                                            
0202LOTE PADRAO                   HABITASUL   PNA        HBTS5       010VISTA          0000000000000000000000000000000000000000000000000000000000/000000000000067100000000896000000000000000000000000000000000000000000000000000000000MOEDA CORRENTE 00000010000000000000BRHBTSACNPA31200               0000000000                                            
0202LOTE PADRAO                   HAGA S/A    ON         HAGA3       010VISTA          0000000000000000000000000000000000000000000000000000000000/000000000000025000000000338000000000000000000000000000000000000000000000000000000000MOEDA CORRENTE 00000010000000000000BRHAGAACNOR71030               0000000000                                            
0202LOTE PADRAO                   HAGA S/A    PN         HAGA4       010VISTA          0000000000029400000000294000000002920000000029200000000294=000000000000028300000000289000050000000000037000000000000108080000000000000000000000MOEDA CORRENTE 00000010000000000000BRHAGAACNPR41030               0000000000                                            
0202LOTE PADRAO                   HELBOR      ON      NM HBOR3       010VISTA          0000000000020500000000221000000002050000000021400000000212+007070000000021200000000215019120000000036669000000000078510600000000000000000000000MOEDA CORRENTE 00000010000000000000BRHBORACNOR31120               0000000707                                            
0202LOTE PADRAO                   HERCULES    ON         HETA3       010VISTA          0000000000000000000000000000000000000000000000000000000000/000000000000020000000000000000000000000000000000000000000000000000000000000000000000MOEDA CORRENTE 00000010000000000000BRHETAACNOR21360               0000000000                                            
0202LOTE PADRAO                   HERCULES    PN         HETA4       010VISTA          0000000000000000000000000000000000000000000000000000000000/000000000000040700000000420000000000000000000000000000000000000000000000000000000000MOEDA CORRENTE 00000010000000000000BRHETAACNPR91360               0000000000                                            
0202LOTE PADRAO                   HOME DEPOT  DRN        HOME34      010VISTA          0000000000000000000000000000000000000000000000000000000000/000000000000000000000028999000000000000000000000000000000000000000000000000000000000MOEDA CORRENTE 00000010000000000000BRHOMEBDR0021190               0000000000                                            
0202LOTE PADRAO                   HOTEIS OTHONPN         HOOT4       010VISTA          0000000000030700000000307000000003070000000030700000000307+003360000000027800000000305000020000000000005000000000000015350000000000000000000000MOEDA CORRENTE 00000010000000000000BRHOOTACNPR90150               0000000336                                            
0202LOTE PADRAO                   HYPERMARCAS ON      NM.HYPE3       010VISTA          0000000000269400000002708000000026600000000267600000002666+001210000000266600000002667178970000000045827000000001226199170000000000000000000000MOEDA CORRENTE 00000010000000000000BRHYPEACNOR01080               0000000121                                            
0202LOTE PADRAO                   IDEIASNET   ON      NM IDNT3       010VISTA          0000000000040800000000410000000004070000000040900000000407+000490000000040500000000407000120000000000055000000000000225080000000000000000000000MOEDA CORRENTE 00000010000000000000BRIDNTACNOR51130               0000000049                                            
0202LOTE PADRAO                   IGUATEMI    ON      NM IGTA3       010VISTA          0000000000282800000003021000000028280000000296200000002992+006780000000299200000002994098570000000020214000000000598782670000000000000000000000MOEDA CORRENTE 00000010000000000000BRIGTAACNOR51180               0000000678                                            
0202LOTE PADRAO                   IMC S/A     ON      NM MEAL3       010VISTA          0000000000053500000000538000000005150000000052500000000515-003190000000051500000000528006330000000003235000000000016989530000000000000000000000MOEDA CORRENTE 00000010000000000000BRMEALACNOR91010               0000000319                                            
0202LOTE PADRAO                   INDS ROMI   ON      NM ROMI3       010VISTA          0000000000028000000000295000000002800000000028900000000294+005000000000028700000000293000580000000000488000000000001412110000000000000000000000MOEDA CORRENTE 00000010000000000000BRROMIACNOR81640               0000000500                                            
0202LOTE PADRAO                   INDUSVAL    ON      N2 IDVL3       010VISTA          0000000000000000000000000000000000000000000000000000000000/000000000000013300000000144000000000000000000000000000000000000000000000000000000000MOEDA CORRENTE 00000010000000000000BRIDVLACNOR51260               0000000000                                            
0202LOTE PADRAO                   INDUSVAL    PN      N2 IDVL4       010VISTA          0000000000013800000000138000000001370000000013700000000137-001430000000013700000000140000050000000000021000000000000028780000000000000000000000MOEDA CORRENTE 00000010000000000000BRIDVLACNPR21260               0000000143                                            
0202LOTE PADRAO                   INVEST BEMGEON         FIGE3       010VISTA          0000000000000000000000000000000000000000000000000000000000/000000000000220000000010500000000000000000000000000000000000000000000000000000000000MOEDA CORRENTE 00000010000000000000BRFIGEACNOR61220               0000000000                                            
0202LOTE PADRAO                   INVEST BEMGEPN         FIGE4       010VISTA          0000000000000000000000000000000000000000000000000000000000/000000000000200000000009000000000000000000000000000000000000000000000000000000000000MOEDA CORRENTE 00000010000000000000BRFIGEACNPR31220               0000000000                                            
0202LOTE PADRAO                   IOCHP-MAXIONON  ES  NM MYPK3       010VISTA          0000000000132700000001375000000013250000000134300000001327+001290000000132700000001342025260000000005386000000000072329890000000000000000000000MOEDA CORRENTE 00000010000000000000BRMYPKACNOR71410               0000000129                                            
0202LOTE PADRAO                   ISHARE SP500CI         IVVB11      010VISTA          0000000000752300000007523000000074360000000746600000007510-000250000000747000000007510000440000000000070600000000005270812000000000000000000000MOEDA CORRENTE 00000010000000000000BRIVVBCTF0011000               0000000025                                            
0202LOTE PADRAO                   ISHARES BOVACI         BOVA11      010VISTA          0000000000620000000006250000000061800000000620600000006200+002530000000618600000006200149010000000027862600000001729153799000000000000000000000MOEDA CORRENTE 00000010000000000000BRBOVACTF0031020               0000000253                                            
0202LOTE PADRAO                   ISHARES BRAXCI         BRAX11      010VISTA          0000000000518800000005200000000051820000000519500000005197+002680000000004600000000000000080000000000002800000000000145456000000000000000000000MOEDA CORRENTE 00000010000000000000BRBRAXCTF0021000               0000000268                                            
0202LOTE PADRAO                   ISHARES ECOOCI         ECOO11      010VISTA          0000000000702400000007024000000069970000000700400000007022+002910000000640000000007200000050000000000016200000000001134664000000000000000000000MOEDA CORRENTE 00000010000000000000BRECOOCTF0081000               0000000291                                            
0202LOTE PADRAO                   ISHARES SMALCI         SMAL11      010VISTA          0000000000574200000005832000000057200000000579800000005810+002790000000572000000005810000380000000000028500000000001652303000000000000000000000MOEDA CORRENTE 00000010000000000000BRSMALCTF0021000               0000000279                                            
0202LOTE PADRAO                   IT NOW IBOV CI         BOVV11      010VISTA          0000000000639600000006396000000063960000000639600000006396+002300000000639600000007500000050000000001196000000000076496160000000000000000000000MOEDA CORRENTE 00000010000000000000BRBOVVCTF0091000               0000000230                                            
0202LOTE PADRAO                   IT NOW IDIV CI         DIVO11      010VISTA          0000000000345000000003498000000034500000000348600000003484+002410000000348400000003500000300000000000157300000000005483842000000000000000000000MOEDA CORRENTE 00000010000000000000BRDIVOCTF0021000               0000000241                                            
0202LOTE PADRAO                   IT NOW IFNC CI         FIND11      010VISTA          0000000000654600000006558000000065390000000654500000006539+002120000000642900000000000000070000000000023500000000001537998000000000000000000000MOEDA CORRENTE 00000010000000000000BRFINDCTF0071000               0000000212                                            
0202LOTE PADRAO                   IT NOW IGCT CI         GOVE11      010VISTA          0000000000262400000002628000000026160000000262400000002616+002340000000261600000000000000040000000000015300000000000401444000000000000000000000MOEDA CORRENTE 00000010000000000000BRGOVECTF0041000               0000000234                                            
0202LOTE PADRAO                   IT NOW IMAT CI         MATB11      010VISTA          0000000000198000000001990000000019800000000198700000001984+003810000000178000000002050000060000000000003200000000000063588000000000000000000000MOEDA CORRENTE 00000010000000000000BRMATBCTF0011000               0000000381                                            
0202LOTE PADRAO                   IT NOW ISE  CI         ISUS11      010VISTA          0000000000245900000002466000000024530000000246000000002453+002420000000245300000000000000140000000000042300000000001040507000000000000000000000MOEDA CORRENTE 00000010000000000000BRISUSCTF0031000               0000000242                                            
0202LOTE PADRAO                   IT NOW PIBB CI         PIBB11      010VISTA          0000000001082500000010980000000108250000001094300000010920+002340000001092000000010968000900000000000744600000000081483168000000000000000000000MOEDA CORRENTE 00000010000000000000BRPIBBCTF0051010               0000000234                                            
0202LOTE PADRAO                   ITAUSA      ON      N1 ITSA3       010VISTA          0000000000085100000000861000000008500000000085500000000851+002160000000085100000000856001700000000000452000000000003863730000000000000000000000MOEDA CORRENTE 00000010000000000000BRITSAACNOR03740               0000000216                                            
0202LOTE PADRAO                   ITAUSA      PN      N1.ITSA4       010VISTA          0000000000089300000000908000000008920000000090000000000900+002730000000090000000000901382070000000218063000000001962891500000000000000000000000MOEDA CORRENTE 00000010000000000000BRITSAACNPR73740               0000000273                                            
0202LOTE PADRAO                   ITAUTEC     ON         ITEC3       010VISTA          0000000000000000000000000000000000000000000000000000000000/000000000000155100000002500000000000000000000000000000000000000000000000000000000000MOEDA CORRENTE 00000010000000000000BRITECACNOR61410               0000000000                                            
0202LOTE PADRAO                   ITAUUNIBANCOON      N1 ITUB3       010VISTA          0000000000311900000003172000000031190000000315400000003155+001770000000314700000003157009500000000004394000000000138592560000000000000000000000MOEDA CORRENTE 00000010000000000000BRITUBACNOR42170               0000000177                                            
0202LOTE PADRAO                   ITAUUNIBANCOPN      N1.ITUB4       010VISTA          0000000000366000000003685000000036300000000366300000003673+002540000000367300000003675300280000000143786000000005266744240000000000000000000000MOEDA CORRENTE 00000010000000000000BRITUBACNPR12170               0000000254                                            
